:020000040800F2
:1000000000000820752B0008C12A0008C32A000838
:10001000C52A0008C72A0008C92A000800000000F5
:10002000000000000000000000000000CB2A0008D3
:10003000CD2A000800000000CF2A0008A9220008ED
:10004000C52B0008C52B0008C52B0008C52B0008D0
:10005000C52B0008C52B0008C52B0008C52B0008C0
:10006000C52B0008C52B0008C52B0008C52B0008B0
:10007000C52B0008C52B0008C52B0008C52B0008A0
:10008000C52B0008C52B0008C52B0008C52B000890
:10009000C52B0008C52B0008C52B0008C52B000880
:1000A000C52B0008C52B0008C52B0008C52B000870
:1000B000CD11000861120008C52B0008C52B0008EF
:1000C000C52B0008C52B0008C52B0008C52B000850
:1000D000C52B0008C52B0008C52B0008C52B000840
:1000E000C52B0008C52B0008C52B0008C52B000830
:1000F000C52B0008C52B0008C52B0008C52B000820
:10010000C52B0008C52B0008C52B0008C52B00080F
:10011000C52B0008C52B0008C52B0008C52B0008FF
:10012000C52B0008C52B0008C52B0008C52B0008EF
:10013000C52B0008D5170008C52B0008C52B0008E3
:10014000C52B0008C52B0008C52B0008C52B0008CF
:10015000C52B0008C52B0008C52B0008C52B0008BF
:10016000C52B0008C52B0008C52B0008C52B0008AF
:10017000C52B0008C52B0008C52B00080000000097
:10018000C52B0008C52B0008C52B0008C52B00088F
:10019000C52B0008C52B0008C52B0008C52B00087F
:1001A000C52B0008C52B0008C52B0008C52B00086F
:1001B000C52B0008C52B0008C52B0008C52B00085F
:1001C000C52B0008C52B000800000000C52B000847
:1001D000C52B0008C52B0008C52B0008C52B00083F
:1001E000C52B0008C52B0008C52B0008C52B00082F
:0801F000C52B0008C52B000817
:1001F80010B5054C237833B9044B13B10448AFF359
:1002080000800123237010BD400100200000000081
:10021800002D000808B5034B1BB103490348AFF391
:10022800008008BD0000000044010020002D0008E7
:1002380003685A004CBF43F0004323F000431844BE
:10024800704700BF2DE9F04759B301F1FF38054663
:10025800164647464FF0000A0AEB070101EBD17139
:10026800491005EBC1094846FFF7E2FF88454FEA08
:10027800C104034610D004F10800B342284407D84B
:10028800FFF7D6FF0138B04208D201F1010AE3E7CF
:100298008A4506D04F1EDFE7B042F9D84846BDE888
:1002A800F0874FF000094846BDE8F087012809D0DB
:1002B800022805D0044B00280CBF184600207047C0
:1002C800024870470248704799090008A1090008C8
:1002D8009D09000830B5224B83B004468D1E43B3F8
:1002E80001A92846AFF30080F0B101992A46FFF72B
:1002F800A9FF0146C0B1FFF79BFF4B68A064012B23
:100308002BD0002B01F1040025DBFFF791FF002320
:1003180023650368E064002B12DBFFF789FF0346BF
:100328000020236103B030BD00230920236103B0FE
:1003380030BD0C4B0C49C91AC91018460191D5E7B4
:10034800C3F30360FFF7B2FF031E0CBF09200020B0
:10035800236103B030BD0123DAE700230520E0E77D
:10036800000000007C2D0008FC2E00080368DA0756
:1003780010B5044606D49B0700F1500009D500F0DB
:100388008FFC2368590709D51A070ED5DB0613D544
:1003980010BD00F07DFC23685907F5D404F1D8009E
:1003A80000F086FC23681A07F0D404F5AC7000F05E
:1003B80087FC2368DB06EBD404F5EC70BDE810403D
:1003C80000F0C2BC0346006800B11844704700BF83
:1003D80009207047704700BF70B504460E46316C5F
:1003E8002046FFF777FF054688B9326C62612369BA
:1003F80032462146012098470828F0D0072806D120
:100408002846316CFFF7E6FF301D00F035FC02F09E
:1004180027FC00BF2DE9F04701F1040CC768D0F8AC
:10042800188006469146BCE80F00ADF5767D03AC12
:100438000FC4BCE80F000FC4BCE80F000FC49CE851
:100448000F0002AD4FF0000E84E80F00C5F800E081
:1004580021E02B6C73614FF4F47229467CA802F0FA
:10046800F1FB33697CAA3146504698478A9BAB64B6
:100478004946CDE900588246334601203246B847FE
:10048800814630BB4FF4F4727CA9284602F0DAFBAF
:10049800BAF1080F1AD1296C3046FFF71BFF09F192
:1004A800090904465FFA89FA0028D2D0AB6BAB641D
:1004B8003246CDE9005833464AF010010120B847CA
:1004C80038B920460DF5767DBDE8F087BAF1070FFB
:1004D80005D0092420460DF5767DBDE8F08748460D
:1004E800296CFFF777FF03A800F0C6FB806C704704
:1004F800F0B5CB6BFBB001F1040C0B640E4605465E
:10050800BCE80F0001AC0FC4BCE80F000FC4BCE886
:100518000F000FC49CE80F004FF0FF3784E80F006E
:10052800009706E02B696A4629469847082804463A
:1005380008D110992846FFF7CDFE0028F2D00920EF
:100548007BB0F0BD6846FFF711FF062CF7D13146A6
:100558002846FFF741FF00BFC160D96B826119646B
:100568000022194656E700BF70B5C66843690B6498
:10057800AEB903690A4604460D460146022098476B
:10058800072805D008280FD129462046FFF724FF61
:100598003046296CFFF71EFF281D00F06DFB012275
:1005A800FFF738FF02F05CFB02F05AFBC2681AB191
:1005B800CA6B0A6400222DE79AE700BF704700BFA4
:1005C800836801460BB1012018477047052915D8E3
:1005D800DFE801F00A031403030501207047009ABD
:1005E800436C13600020704743B90F2A06D800EB0C
:1005F800820200205368009A1360704702207047F7
:1006080000B585B00A46002303A900911946FFF7F3
:10061800DDFF039805B05DF804FB00BF052915D878
:10062800DFE801F00A031403030501207047009B6B
:100638001B6843640020704743B90F2A06D8009B03
:1006480000EB82021B68536000207047022070474D
:1006580010B584B0002303AC039200940A461946EF
:10066800FFF7DCFF04B010BD70B5D36BADF5107D9E
:1006780002F1040C136405460C46BCE80F000DF1AA
:100688005C0EAEE80F00BCE80F00AEE80F00BCE857
:100698000F00AEE80F009CE80F004FF0FF368EE821
:1006A8000F00169610E0FFF7D3FF214616A8A847BB
:1006B800034616AA0820694683B9049B984705286B
:1006C80006460CD0092809D026996846FFF702FE8D
:1006D80003460C216A4616A8002BE4D0092616A862
:1006E800FFF744FE30460DF5107D70BD2DE9F04F43
:1006F8001646CA6C89B00D4652F8041B069200F0E3
:10070800030C002B79D00C0C8DF81D400904E4B2C1
:10071800059102EB840202218DF81C10296DBCF1B1
:10072800020F08BFAA6B11F0010809D005A93046CD
:1007380000F0A4FB002856D1082009B0BDE8F08FCE
:100748001768002FF2D000F00801CDE90118E34640
:100758009A46BAF1020F4CD01788548802F104095E
:10076800AA6C24F001030F21304603EB0208FFF7BF
:1007780047FF80453BD827F0010202EB080383427C
:1007880094BF00230123640004F0020407F001076A
:100798002743012F4ED0022F35D027BBBBF1000FC6
:1007A80002D0002B40F0D38009F104021768002F13
:1007B800CFD105A93046DDF8088000F05FFB90B97D
:1007C800B8F1000FB8D00F213046FFF719FF0E21FE
:1007D80002463046FFF73CFF6C4A0F213046FFF7D0
:1007E80037FF072000E0092009B0BDE8F08F00239B
:1007F800C9E7546802F10809B2E7090205918DF8C2
:100808001D30032188E7D9F8004024F00048BBF1E7
:10081800000F47D12BB1019B002B5CD0B8F1000F22
:1008280059D0002C01DA09F1040908F1010209EB99
:100838008202BBE7BBF1000F1CD1C3B1D9F8043069
:10084800D9F80020991C4FEAD272CCD005F158048F
:100858000133049400F08E8009F10400FFF7B2FD23
:1008680004AB01462846AFF30080002859D109F1AE
:1008780008029BE70D213046FFF7C2FE2C6A84422E
:10088800F5D1AB6A9945F2D14846FFF7D1FC0F2163
:1008980002463046FFF7DCFE2A4600213046FFF7C5
:1008A800D7FE9EE70D213046FFF7AAFE2F6A874242
:1008B800B7D1AB6A9945B4D100240423C5E90B43E9
:1008C8004B44C5F828806B63D9F80030A34258DB45
:1008D80001230293A9E705F15803CDF80CB009F1FB
:1008E8000407B34600241E460BE038460496FFF77B
:1008F80069FD0022014604AB2846AFF300800437A7
:10090800F8B9444504F10104EFD10D215846FFF729
:1009180077FE049BC5F828900246C5E908230620FF
:1009280062E704460D213046FFF76AFE049E2862FE
:10093800022C04BFEE6205F12C06C5E90969062000
:1009480052E75E46D9F80040DDF80CB069E7484642
:10095800FFF76EFC09F104030446AB632846AFF3C6
:10096800008000283FF43FAF22460F213046FFF7B2
:100978006FFE36E730460D21FFF742FE2646286215
:10098800DBE708F1010209EB82007EE700000000C6
:100998000023ABE60123A9E60223A7E62DE9F041EF
:1009A8000646C4B01446052900F2E880DFE811F0D5
:1009B80012002D00E60066008B000600836B002CF9
:1009C80040F0DC8053F8042B42648363002044B079
:1009D800BDE8F081002B40F0D180856B1FFA84FCC4
:1009E800012006F1040E00FA03F111EA0C0F2A4661
:1009F80004D052F8041B4EF8231015460133102B6F
:100A0800F1D1A704E2D4B563E0E7012B4FEA14471C
:100A1800A4B27CD0052B40F0B18007EB0408B8F1F4
:100A2800200F00F2AB800F2F40F2AA80002CCDD00F
:100A38000268550700F1FF80019302AD284600F0D7
:100A48003BF96400A7F11000B26B019B611E05EB36
:100A5800C0000131043802EB810152F8044B40F820
:100A6800044F8A42F9D1012B00F0CD800F2FB263D9
:100A780040F2E980284600F01BF9A7E7032B7DD157
:100A8800A7B207EB1443102B4FEA144476D8036837
:100A9800190700F1A48022AD284600F033F97A0046
:100AA800B06B05EBC404531E42B1011B625844F8F5
:100AB800042B013B5A1CF9D100EBC700B063284650
:100AC80000F0FEF882E7002B58D1102C56D80368A6
:100AD800D8067CD422AD284600F040F9B76B2946E9
:100AE80000234FF0010C0CFA03F22242384603F1BE
:100AF800010303D050F8042B0A600746042B01F1C8
:100B08000401F0D1B763284600F01EF95EE73A19F0
:100B1800102A33D8102F31D00268D10708D53046B3
:100B280022F0030240F8502B019300F0B5F8019B26
:100B3800019322AD284600F0AFF8B16B019B002C61
:100B480062D06200013A05EBC7004FF0000801329D
:100B5800043801EB820251F8044B40F8044F9142EB
:100B6800F9D1B8F1000F42D1012B4DD00F2FB1634D
:100B78003FF62CAF284600F093F827E7022026E737
:100B88000268B8F1100F02F0010143D951B122F007
:100B9800010242F0020240F8502B019300F084F861
:100BA8003268019B0193500751D422AD284600F0CA
:100BB8007BF802A800F080F8C7F110025200B16B70
:100BC800019BA8F11008013A05EBC700BFE723F025
:100BD8001003336006F5EC7000F0C0F87AE723F0F4
:100BE8000803036000F5AC7000F08CF853E7102F91
:100BF800384638BF10204FEA4801103802AD013995
:100C080005EBC00025E722AD0431B163284600F0AA
:100C18003FF8DBE619BB22AD2846019300F044F803
:100C2800B16B002CA6D06200019B013A05EBC7000E
:100C38004FF000088BE722F0040240F8D82B01930C
:100C480000F03AF8F9E622A800F02AF812E7304650
:100C580022F0040240F8D82B00F02EF8A5E7304621
:100C680022F0010242F0020240F8502B019300F0FA
:100C78001BF8019BCFE700BF00F1340191E8380071
:100C88009C46A6464CF8045D90E8FF0FE54600BD7B
:100C980090EC210B704700BF80EC210B704700BF20
:100CA80090EC200B704700BF80EC200B704700BF12
:100CB800D0EC200B704700BFC0EC200B704700BF82
:100CC800F0EC0201F0EC0211F0EC0221F0EC023140
:100CD800F0EC0241F0EC0251F0EC0261F0EC027130
:100CE800F0EC0281F0EC0291F0EC02A1F0EC02B120
:100CF800F0EC02C1F0EC02D1F0EC02E1F0EC02F110
:100D0800704700BFE0EC0201E0EC0211E0EC0221C8
:100D1800E0EC0231E0EC0241E0EC0251E0EC02616F
:100D2800E0EC0271E0EC0281E0EC0291E0EC02A15F
:100D3800E0EC02B1E0EC02C1E0EC02D1E0EC02E14F
:100D4800E0EC02F1704700BFB0FC0181B0FC0191FA
:100D5800B0FC01A1B0FC01B1704700BFA0FC01814B
:100D6800A0FC0191A0FC01A1A0FC01B1704700BF4B
:100D7800EC4600B52DE900502DE9FF1F4FF00003A8
:100D88002DE90C0001A9FFF7B3FBDDF840E012B034
:100D9800704700BFEC4600B52DE900502DE9FF1F54
:100DA8004FF000032DE90C0001A9FFF7DDFBDDF88A
:100DB80040E012B0704700BFEC4600B52DE9005086
:100DC8002DE9FF1F4FF000032DE90C0001A9FFF7E3
:100DD800EDFBDDF840E012B0704700BFEC4600B50F
:100DE8002DE900502DE9FF1F4FF000032DE90C00FD
:100DF80001ABFFF7B1FBDDF840E012B0704700BF70
:100E0800EC4600B52DE900502DE9FF1F4FF0000317
:100E18002DE90C0001AAFFF727FCDDF840E012B02D
:100E2800704700BF027A03467AB9427AA2B1416894
:100E3800013A10B44272086803220C1D1A720202A9
:100E48005C60000E10BC1A6070470068013A1A72A4
:100E580002021A60000E7047B020704700B585B0D6
:100E680003AA0023009219460C22FFF7AFFB039850
:100E780005B05DF804FB00BFF0E700BF2DE9F043C3
:100E8800064685B00D464FF000082846FFF7CAFF12
:100E9800B028044600F01C8107065BD500F0F0037B
:100EA800A02B1AD030D8802B00F08280902B27D12D
:100EB80000F00D030D2B23D002AF002300F00F022A
:100EC800194600973046FFF781FB002300970D2253
:100ED80019463046FFF7A2FBD7E7C34303F00703E1
:100EE8004FF47F621A41010702F47F6201D542F490
:100EF8008042002319463046FFF750FD0028C4D031
:100F0800092005B0BDE8F083B02B68D0C02B3DD1D7
:100F1800C62800F0CA80C72800F0DF8000F0F80378
:100F2800C02B00F0EC80C82800F0F780C928E7D172
:100F38002846FFF777FF020300F00F0002F4702243
:100F480001300243012105233046FFF727FD002821
:100F58009BD0D5E78300DBB21F1D0DF108090023E4
:100F68001946CDF800900D223046FFF72FFB029B63
:100F7800CDF8009060064CBFDF1BFF1800230D2240
:100F8800194630460297FFF749FB7EE700F0F80361
:100F9800D02BB5D100F007020132052342F400221C
:100FA80001213046FFF7FAFC00283FF46EAFA7E7AF
:100FB8002846FFF737FF24022043B0F5004F9FD0A3
:100FC80004010023A2B219463046FFF7E7FC0028C7
:100FD80096D114F4004F18BF4FF0010855E7A0F15F
:100FE800B103042B00F2B580DFE803F05529160C95
:100FF800030003AA0023009219460D223046FFF78A
:10100800E5FA42E700231A4605213046FFF7C6FCF9
:1010180000283FF43AAF73E72846FFF703FF0203BF
:1010280000F00F00013002F4702201230243194638
:101038003046FFF7B3FC00283FF427AF60E70023F2
:101048000DF108090D221946CDF800903046FFF73A
:10105800BDFA2846FFF7E6FE0206029C4FF002079B
:101068000BD500F07F00B840044428460294FFF7EF
:10107800D9FE030607F10707F3D4B840002304F5A7
:1010880001740444CDF800900D22194630460294AC
:10109800FFF7C4FAF9E62846FFF7C4FE431EDBB2A1
:1010A8000E2B02467FF625AF2AE72846FFF7BAFE41
:1010B800020300F00F00013002F470220323024300
:1010C80019463046FFF76AFC00283FF4DEAE17E702
:1010D800B8F1000F2DD0002013E72846FFF7A2FE35
:1010E800431EDBB20E2B02463FF60AAF0023042153
:1010F8003046FFF753FC00283FF4C7AE00E700F086
:101108000F020132032342F4202219463046FFF72A
:1011180045FC00283FF4B9AEF2E62846FFF782FE08
:1011280000F0F00200F00F031032013343EA0232FC
:1011380008E702AC4346414600940E223046FFF7CA
:1011480045FA0F220094434641463046FFF766FAB7
:10115800C1E700F0FC03B42B3FF4D2AE00F0070265
:101168000132012342F4002219463046FFF716FCEB
:1011780000283FF48AAEC3E610B5C26C536884B049
:101188004FF0030C08321C0208461B0E01A90194FB
:1011980002928DF80CC08DF80D30FFF76FFE04B089
:1011A80010BD00BF08B5FFF767FE806C08BD00BF23
:1011B80008B5FFF761FEC06CC37900EB8300083007
:1011C80008BD00BF4FF080431A69110710B511D54B
:1011D8001E49DA6B0C781E4824BB026001220A7093
:1011E8001A6A42F400721A624FF08042136923F0BF
:1011F800080313614FF080431A69D20611D51349C9
:101208001A6C4C781248BCB9426001224A701A6ABA
:1012180042F400521A624FF08042136923F010031F
:10122800136110BD0068121A0A48026000220A7091
:101238001A6A22F40072D6E74068121A054842601A
:1012480000224A701A6A22F40052E3E75C01002087
:101258007C01002064010020444A136910B59C07F2
:1012680012D54349536B8C784248002C52D19BB21B
:10127800836001238B70136A43F0020313623B4AB5
:10128800136923F002031361384A1369580712D50A
:101298003749936BCC783748002C46D19BB2C36052
:1012A8000123CB70136A43F0200313622F4A13699A
:1012B80023F0040313612D4A1369190712D52C4929
:1012C800D36B0C792B48002C3AD19BB203610123D4
:1012D8000B71136A43F400731362244A136923F0F1
:1012E80008031361214A1369DB0612D52049136CE0
:1012F8004C792048002C2ED19BB2436101234B71BD
:10130800136A43F400531362184A136923F0100355
:10131800136110BD80681B1A17489BB283600023B5
:101328008B70136A23F00203A8E7C0681B1A1248DF
:101338009BB2C3600023CB70136A23F02003B4E789
:1013480000691B1A0C489BB2036100230B71136AD6
:1013580023F40073C0E740691B1A07489BB2436136
:1013680000234B71136A23F40053CCE700040040B8
:101378005C0100207C01002064010020294B1A6CCC
:1013880042F001021A644FF0FF321B6C4FF08043A9
:10139800DA626B229A6201225A611A6922F001020A
:1013A8001A611A6A22F480721A621A6AD96922F4D6
:1013B800206221F0030142F4007241F00101D96179
:1013C8001A620822DA601A6A22F480721A621A6AA9
:1013D80042F480721A621A6A22F480521A621A6AF5
:1013E800D96922F4204221F4407142F4005241F4B8
:1013F8008071D9611A621022DA601A6A22F4805266
:101408001A621A6A42F480521A621A6842F0010299
:101418001A600022044B83F81C234FF080521A6094
:10142800704700BF0038024000E100E0424B1A6CF0
:1014380042F002021A644FF0FF321B6C3F4BDA6233
:101448006B229A6201225A611A6922F001021A611A
:101458001A6A22F001021A621A6A996922F00A02CB
:1014680021F0030142F0020241F0010199611A6280
:101478000222DA601A6A22F001021A621A6A42F03B
:1014880001021A621A6A22F010021A621A6A99692B
:1014980022F0A00221F4407142F0200241F4807150
:1014A80099611A620422DA601A6A22F010021A623A
:1014B8001A6A42F010021A621A6A22F480721A62D8
:1014C8001A6AD96922F4206221F0030142F40072F9
:1014D80041F00101D9611A620822DA601A6A22F41D
:1014E80080721A621A6A42F480721A621A6A22F4C4
:1014F80080521A621A6AD96922F4204221F4407192
:1015080042F4005241F48071D9611A621022DA6003
:101518001A6A22F480521A621A6A42F480521A62D3
:101528001A6842F001021A600022054B83F81D2355
:101538004FF000521A607047003802400004004023
:1015480000E100E0284B1A6B42F07F02F0B5274F0C
:1015580085B01A631B6B01AC254B264D264ECDE991
:1015680001730B230393862394E8070000F08CFB98
:1015780001950D2394E8070000F032FB0196322311
:1015880094E8070000F080FB1C4B01934FF42053B4
:1015980094E8070000F078FB012301958DF80B30E3
:1015A8008DF80C300A2394E8070000F019FB019726
:1015B800032394E8070000F013FB02238DF80C3096
:1015C800062394E8070000F00BFB0196072394E834
:1015D800070000F005FB0195032394E8070005B018
:1015E800BDE8F04000F050BB003802400000024067
:1015F80002000300000402400008024000180240F4
:101608002DE9F04100F0D6FBBFF34F8FBFF36F8F8A
:10161800364B0021C3F85012BFF34F8FBFF36F8FC3
:101628005A6942F400325A61BFF34F8FBFF36F8F8C
:10163800C3F88410BFF34F8FD3F8802043F6E074CB
:10164800C2F3C900C2F34E32520102EA040601464F
:1016580046EA81750139C3F86052F9D2203A12F18D
:10166800200FF2D1BFF34F8F5A6942F480325A618A
:10167800BFF34F8FBFF36F8FD9681D4A21F4E06124
:101688000904090C0A43DA6062B600F0F5FD19484E
:1016980000F02EFD00B1FEE7174D00F0F7FD174FE3
:1016A800FFF750FF05F1700600F0B0F9FFF766FE8E
:1016B800FFF7BCFE00F00EFE00F004FE044641F207
:1016C800883800F0AFF800F0FDFD001B4045F8D960
:1016D80000F0F8FD95F8AD300446022BEFD1232237
:1016E8003946304601F0A6F9E9E700BF00ED00E011
:1016F8000003FA052400002020FA00200000002042
:101708002DE9F0411448002314494FF00048144DC6
:1017180084460A464FF48C4E2C4602EB431645F895
:10172800041B5F010133203142F8078003F00707EB
:10173800082BC6F804E002EB4717B06000F5C0605C
:10174800F760EAD10023C4F828C0C4E90823054B90
:10175800DA60BDE8F08100BF0080072000C00720E4
:10176800C4010020009002402DE9F04113480023F5
:1017780013494FF48018134D86460A469C462C465A
:1017880002EB431645F8041B5F010133203142F890
:10179800078003F00307042BC6F804C002EB4717C1
:1017A800B06000F5C060F760EAD1074BA4F818C034
:1017B8002261C4F81CE01A61BDE8F0810002002033
:1017C80000C10720A401002000900240104B596975
:1017D800DA69480606D5500604D50E485861012036
:1017E8000D4B1860C90711D5D3070FD5084B4FF01B
:1017F80001125A61094A537E013303F003035376F9
:1018080052F8233013610122054B1A60704700BF5C
:101818000090024040000100A0010020A401002027
:101828009C0100202DE9F0411F4D204C2B6813F03E
:10183800010F04D100F046FD012320602B6000F069
:1018480041FD2368C01A632804D900F0BBFE00F0EC
:1018580039FD2060164D0022164B6C6A164EDFF8D3
:101868005C801A60670106EB4412F359002B17DB02
:1018780003F44071B1F5407F09D1C3F30D434146EC
:101888000B48EB6293682A62AB6200F0A3FB4FF04F
:101898000043F351BFF34F8F013404F00704E1E72D
:1018A8006C62BDE8F08100BF94010020980100201F
:1018B800C4010020A001002000C00720A4010020CE
:1018C8000C4AC0F30C000C49137E52F823305860C0
:1018D8001960BFF35F8F094B00214FF4C060596056
:1018E800137E0749013303F00303137600FB031348
:1018F800D3617047A4010020000010F0009002405E
:10190800000200202DE9F041104EC402890115465D
:101918003369A4B201F4F86141F2883803F01C037A
:101928001C430C4344F00104346100F0CBFC07462F
:10193800E30703D473699BB22B6005E0346900F0B8
:10194800C1FCC01B4045F3D9BDE8F08100800240CE
:10195800F8B50F4DC402890141F288372B69A4B24A
:1019680001F4F86192B203F01C036A611C430C4352
:1019780044F003042C6100F0A5FC0646E30705D5F6
:101988002C6900F09FFC801BB842F7D9F8BD00BF56
:101998000080024073B500244FF4004241F28836BB
:1019A80021462046CDE90044FFF7D2FF00F08AFC2B
:1019B8004FF4805221462046FFF7CAFF00F082FC10
:1019C8000546009B13F020040AD000F07BFC41F28E
:1019D80088360546019B13F004040CD002B070BD94
:1019E80000F070FC401BB042F8D86A46012120463E
:1019F800FFF788FFE5E700F065FC401BB042EDD833
:101A080001AA01212046FFF77DFFE3E7F8B5454B22
:101A1800454D5A6C454C42F480425A645B6C444BC9
:101A28005A6842F400025A605B682B6843F001036D
:101A38002B6000F047FC07462E6816F001066BD1B4
:101A48003C4B01202360276800F032FC80230120F2
:101A58002760A361A76900F02BFC374B0120A76121
:101A6800AB61AF6900F024FC49F678230120AF612F
:101A78002364324B6364324B2B602F6800F018FCF0
:101A88002F60FFF73DFEFFF76FFEE36B43F4027331
:101A9800E363D4F80C3143F4003343F06003C4F833
:101AA8000C31D4F8103143F40313C4F81031EB6946
:101AB80043F4803343F04103EB61EB69FFF76AFFBE
:101AC8002368012043F008032360276800F0F0FB37
:101AD80001202760236843F004032360276800F08F
:101AE800E7FB01202760AB6943F48013AB6100F08A
:101AF800DFFBAB694FF0005223F48013AB61AB6995
:101B080043F40053AB61AB6943F00203AB610D4B87
:101B18005A6083F83D6304E000F0D4FBC01B0A2838
:101B28008AD9F8BD00380240009002400080024087
:101B3800003801400C4E00024000200202123456C8
:101B48008220C10200E100E030B50A4605460023C4
:101B5800012A0FD84A08C2EBC23401EB440189B20A
:101B680019B110F8122003EB02231A0C0AD1D8433A
:101B780080B230BD35F8024B023A64BA92B213FA19
:101B880084F3E5E712FA83F3EFE770B50D889C1D3F
:101B98006DBA14FA85F54C88018864BA408849BA48
:101BA80015FA84F440BA551C14FA81F111FA80F040
:101BB80000218B4204DC030C0FD1C04380B270BDFE
:101BC8004E1C545C9E424FEA0424B8BF6E5C01F17F
:101BD8000201B8BF34432044EBE713FA80F0EAE788
:101BE800F0B585B05F001DB204AC04E907000468D5
:101BF800014603209DF808609DF80C20B840022E8D
:101C080024EA000C06FA07F444EA0C044FF0010C2D
:101C18000C600CFA03FC4C6824EA0C0C9DF8094093
:101C280004FA03F444EA0C044C608C6824EA000CBF
:101C38009DF80A4004FA07F444EA0C048C60CC6866
:101C480024EA00049DF80B0000FA07F040EA0400BB
:101C5800C8600DD1072B02F00F024FF00F0009D812
:101C6800AD000B6AA840AA4023EA00031A430A629F
:101C780005B0F0BD083B4C6A9B0098409A4024EAA6
:101C8800000002434A62F3E72DE9F04F87B04FF0B6
:101C98000F084FF0010A4FF0030B06AC04E90700E8
:101CA8009DF8112001469DF8144000929DF81220DD
:101CB80004EA08049DF810E001929DF813200292AE
:101CC80000220AFA02F902F1010C19EA030F41D0C5
:101CD80050000F68BEF1020F0BFA00F50EFA00F67D
:101CE80027EA050746EA07060E60009E4F6806FACF
:101CF80002F627EA090746EA07064E60019E8F6842
:101D080006FA00F627EA050746EA07068E60CE6857
:101D180026EA0506029D05FA00F040EA0600C860BA
:101D280018D1072A4FEA82020ADC086A08FA02F583
:101D380004FA02F220EA050002430A626246C0E79A
:101D4800203A486A08FA02F504FA02F220EA050085
:101D580002434A626246102AB3D107B0BDE8F08F49
:101D680003784FF0E022017AC2F8983DD2F8A03DFE
:101D780023F00103C2F8A03D4368C2F89C3D437AB2
:101D88001B0643EA0173017C0B43817A43EAC14392
:101D9800C17A43EA8143017B43EA4143417B43EAF9
:101DA8000143817B43EA0123C17B43EA4103C2F833
:101DB800A03D704710B5BFF35F8F4FF0E024104887
:101DC800D4F8243D23F48033C4F8243D0023C4F818
:101DD800943DFFF7C5FF0B48FFF7C2FF0A48FFF71E
:101DE800BFFF0523C4F8943DD4F8243D43F4803361
:101DF800C4F8243DBFF34F8FBFF36F8F10BD00BFF2
:101E0800402D00082C2D0008182D000838B543690E
:101E18001C681D4B224603F1300153F8045B8B42CA
:101E280042F8045BF9D11B88138083681A68226022
:101E38009B88A380C3681B68C4F81E3005790169B4
:101E480004F12A0005F1080200F0FCFE05F1240265
:101E5800142104F10E00130A62742374FFF774FE50
:101E680005F11001030A607604F122002376FFF7DA
:101E78006BFE84F82500030A05F1320084F824304B
:101E8800BDE83840FFF71CBD5E00002002790369F9
:101E980013449A78DB7843EA022341F2883293426A
:101EA80001D0FFF7B3BF70472DE9F041016904463F
:101EB800037911F80380B8F1080F3DD1436906464C
:101EC8001D6836F8082B05F10E07384600F0BAFEF3
:101ED800A36838462B60B388002685F80C80AB8051
:101EE800164B6E731A68C5F806209B886B81144BD5
:101EF8001B68C5F81A30E3681B682E76C5F81E30D3
:101F08006E762179FFF720FE6876030A2B7623790F
:101F1800FD18FE54AE702846EE7023792188C91A40
:101F280089B2FFF711FEE870030AAB702088BDE89C
:101F3800F0410E30FFF7C4BCBDE8F08194000020EA
:101F4800900000202DE9F843B0F802900546B9F159
:101F5800290F39D987697B7D012B35D1DFF870804E
:101F6800042207F12600414600F029FE064658BB28
:101F78006B69A9F10C0207F10C011C6804F10C0053
:101F880000F060FEAB6802211A6822609B88267503
:101F9800A3800E4B61751A68C4F806209B88C4F8A4
:101FA800162063816383D8F80030E361AB681A6850
:101FB80022629B88A384EB681B68C4F82630688873
:101FC800BDE8F843FFF77CBCBDE8F8839400002027
:101FD80090000020C36A0D2B70B5064688B00D46E8
:101FE80011D9846AA289B2F5C16F0ED104F1160223
:101FF8001C3507941C3401A8069503920494ADF887
:102008000630FFF79FFF08B070BD212BFBD90422D3
:102018001A4904F11E0000F0D2FD0028F3D1336AFA
:102028001A6902F05003402BEDD104F10E031C3560
:10203800079406950593A37B03F00F039B008DF887
:102048000830238A5BBAADF8043004F11A03063469
:10205800049302F003030394032B03D101A8FFF7B1
:1020680023FFD0E7D10703D501A8FFF70FFFCAE781
:102078009307C8D501A800F01DFBC4E79000002015
:10208800174A184B2DE9F04192F8008092F801E0C8
:1020980092F802C0D77816795579134A83F80680E2
:1020A800147850789178D27883F807E083F808C0DC
:1020B8005F729E72DD729C76D87619775A770B4BD1
:1020C80083F8068083F807E083F808C05F729E7281
:1020D800DD729C76D87619775A77BDE8F08100BF13
:1020E800940000205E0000209000002034000020B2
:1020F8002DE9F84390F800E00446AEF102033D2BC9
:1021080000F2AC80B0F80280A8F13203B3F5BF7FCB
:1021180000F2A480524F03793A68C18842F44042E1
:1021280000896589267B3A60677B002F5FD11B0495
:102138004C4A43EA881343EA0E0343EA8753536041
:10214800136843F08073136041F20103D2F800C0B2
:102158001CF0007F6FD0424B1A6842F480321A603C
:1021680041F201025F68FF0372D51A683C4F42F4DE
:1021780000321A603C4B7A6892036CD5394A0143A5
:102188003A4B1E60936823F47C4323F0F0032B43FF
:102198000B439360936823F0030343F002039360B7
:1021A800936803F00C03082BFAD100F0A7FCE37B3B
:1021B800A3B12F4B4FF47A721B68B3FBF2F3013BC8
:1021C800B3F1807F0AD24FF0E022F0215361294B0E
:1021D80083F823100023936107231361637B23B1E2
:1021E800204A136823F001031360002021E094F8CB
:1021F8000EC01C4ABCF1000F05D0D2F800C04CF448
:10220800802CC2F800C0D2F800C04CF4803CC2F860
:1022180000C041F2010C134AD2F8009019F4003FB3
:1022280085D1BCF1010CF7D11368012023F4803368
:102238001360BDE8F883013B88D1136823F08073ED
:1022480013601FB1136823F4803313600220F0E792
:10225800013A87D1FAE7013B8DD1F7E70320E8E798
:102268000070004000380240410D0300003C02406D
:10227800D000002000ED00E0034B1A6C42F08052C1
:102288001A641B6C704700BF00380240034B1A6B7E
:1022980042F060621A631B6C704700BF003802404E
:1022A800024A136801331360704700BF001A002008
:1022B800034A116813685B1A8342FBD3704700BF57
:1022C800001A0020014B1868704700BF001A002050
:1022D80000BA70474FF660120021094808B500F0AF
:1022E8007EFC084A002308491370084A1160084A0E
:1022F80002F8013B01330A2BFAD1064A137008BDD4
:10230800201A0020131A0020C0010020041A0020FF
:10231800091A0020081A0020094803786BB10949F6
:102328000A78092A09D8013BDBB203700648C05C69
:10233800531C0B70054B985470474FF0FF30704793
:10234800081A0020131A0020091A0020141A002065
:1023580070B513490446134800230D4602789A4283
:102368001ADD11F8016BA64217D1013A9A42D1B28F
:1023780018BF6A5C01704FF0000118BFEA5441F6BB
:10238800F002094802FB040000F029FC074A137810
:10239800591C1170064AD45470BD0133DFE700BFE1
:1023A800141A0020131A0020201A0020081A0020EE
:1023B800091A00202DE9F0479846254B1646254A6C
:1023C8001B680F460546DDF820901C6802F13401B1
:1023D8009DF824A0234652F8040B8A4243F8040BC4
:1023E800F9D1128814217FBA76BA1A80AB681A68B4
:1023F80022609B88A3800023237428236374EB68DE
:10240800186800BAFFF764FFC4F81E0004F10E0054
:10241800FFF79AFB40BA678404F122022083404602
:10242800A6841423FFF754FFC4F826004846FFF794
:102438004FFF84F82FA0C4F82A00E9680648FFF780
:10244800A4FB40BA60863620BDE8F047FFF738BAEB
:10245800041A00209A0000209000002038B51A4B7A
:1024680004461B681D68194B2A4603F1200153F8DE
:10247800040B8B4242F8040BF9D11B8814211380FA
:10248800D4F837302B60B4F83B30AB80638EE0690A
:1024980014335BBA2B82FFF71BFFC5F81E0005F14A
:1024A8000E00FFF751FB04F5A15140BA1E312883F5
:1024B80005F12200628E00F0C5FB608EBDE8384051
:1024C8002230FFF7FDB900BF041A00209A0000204F
:1024D8002DE9F74F9946384B384F92461B68054609
:1024E8008B46BDF838601C6807F1340204F12208F5
:1024F800234657F8041B974243F8041BF9D13A883E
:1025080014211A80D5F837302360B5F83B30A38002
:1025180006F12803E8695BBA2382FFF7D9FEC4F8FD
:102528001E0004F10E00FFF70FFB40BA2083584647
:10253800EB8D5BBA6384AB8D5BBAA384FFF7C8FEEF
:10254800C4F826005046FFF7C3FE2B8DC4F82A00B6
:102558005BBA84F82F9023862EB132460D9904F188
:10256800360000F06FFBEB6906F11409424601A939
:102578001BBA1FFA89F7124801933B46FFF705FB80
:102588009DF8303040BA012B60860DD105F5A15079
:102598004A4641461E3000F055FB6F86FFF792FE13
:1025A8000023286185F8343006F13600FFF788F9F2
:1025B80003B0BDE8F08F00BF041A00209A00002085
:1025C80090000020384B2DE9F0431E7885B0DFF8E5
:1025D800DC90013EDFF8D880731C02D105B0BDE85D
:1025E800F08319F8067041F6F00404FB07842369A8
:1025F800B3B1FFF767FE2369C01A40F6C4139842C7
:102608000ED994F83430022B2ED82046FFF726FF37
:10261800FFF758FE94F834302061013384F83430E1
:1026280041F6F005FFF74EFE05FB07856B68C01AFB
:1026380044F62063984224D995F83D30022B20D1E6
:10264800FFF740FEAB68C01AB0F57A7F19D395F84A
:1026580036306969022B4FF00003CDE9013312D9F6
:10266800009304236A6A06E00023CDE9013300934E
:102678000423626A61692046FFF72AFF3846FFF79C
:1026880067FE013EA8E71022013920460092EA6859
:10269800FFF71EFF95F83630013385F83630FFF71F
:1026A80011FEA860EDE700BF131A0020141A0020DD
:1026B800201A00202DE9F04F02698BB0037981467A
:1026C800AD4ED118D35A5BBAC88991F80D80ADF8D0
:1026D80018301FFA83FB4B8890FA90FA5BBAADF872
:1026E8001A309DB2D9F80C301B681BBA059348689C
:1026F800FFF7EEFD8B680446DFF884E208939F4BF2
:102708001B78099300230493099B049A93420CDCD9
:1027180018F0020F32D0FFF7FFFD431C04F1010649
:1027280033D11423CDE9006322E01EF8013B41F6C2
:10273800F00205985A43B7180792FA69B7F82EC0FD
:1027480082420FD1BA8D5A450CD1654519D118F07E
:10275800040FA7F82AA052D018460BB0BDE8F04FD6
:10276800FFF7F6BD65450CD10423013401930094AD
:1027780000235A4629464846FFF71CFE0BB0BDE821
:10278800F08F049B01330493BEE741F6F007DFF8AE
:10279800E881059B474308EB07053737EB6185F868
:1027A8003500FFF78FFD686007EB0802D9F808309D
:1027B8002846196848F807109B8893800022BDF8BE
:1027C8001830EC60AB85BDF81A306E62EB854FF4BB
:1027D800A053A5F82AA02B854FF0E023996901237F
:1027E800696185F83D30296200931223CDE9012201
:1027F8003246FFF76DFE6B6901336B61BEE70898DF
:10280800FFF766FD824697F83D0001380428B5D8E1
:10281800DFE810F005003400B800E300FD0018F010
:10282800100F1AD041F6F00505FB0365696951459B
:10283800A4D1696AA142A1D10493FFF743FD002204
:10284800049B686085F836202A6185F834206A86FA
:102858000222C5F820A085F83D2018F0020F8DD07F
:1028680041F6F002013402FB03635B6A9C4285D1A6
:1028780038460BB0BDE8F04FFFF7F0BDCDE90413C3
:1028880041F6F005FFF71EFD059B4FF0000B05FB19
:1028980003656860686985F836B05045FFF46EAF27
:1028A8006A6A0499A2427FF469AF18F0010F1BD03D
:1028B800621C0146102338466A62CDF800B0CDE9A3
:1028C80001BBFFF705FE0123384600931123CDE92C
:1028D80001BB6A6A6969FFF7FBFD6B6901336B61CC
:1028E800052385F83D3049E718F0100F3FF446AF4F
:1028F800286A41F6F0044FF0000804FB03645045D1
:10290800A4F8328038BFC5F820A0C4F8108084F835
:1029180034800A7B99F80400B9F8003012091B1AB0
:102928004FEA820CA3EB82039BB2002B3FF426AF45
:10293800228E61440798C2F5A0553E30ADB21044CE
:102948009D42304428BF1D462A4600F07BF9238E5D
:10295800626A38462B442A449BB262622386C3F5D6
:10296800A05323851023CDF80080CDE90188616943
:10297800FFF7AEFD02E700BF201A0020131A00205F
:10298800141A002018F0100F3FF4F8AE41F6F004C6
:1029980004FB0364636953457FF4F0AEFFF792FCD0
:1029A800002318F0010F606084F8363063862361D5
:1029B80084F834300DD0626A38460132626200937E
:1029C800CDE9013310236169FFF782FD94F83500E2
:1029D800C3E6042384F83D30D0E618F0010F3FF435
:1029E800CDAE41F6F00505FB03656B6AA3427FF4A3
:1029F800C5AE0023621C38466A620093CDE90133F4
:102A080010236969FFF764FD95F83500A5E618F00D
:102A1800100F3FF4B3AE41F6F00101FB0366736992
:102A280053457FF4ABAE736AA3427FF4A7AE96F822
:102A3800350092E630B5154690F83D2085B004463D
:102A4800022A0B4614D1028DAA4211D34169026AA7
:102A5800914210D1CDE90135012300931823426A30
:102A6800FFF736FD636900202B44636105B030BD74
:102A78004FF0FF30FAE76FF00100F7E70B4A0C4B15
:102A8800117899715178D97191781972D1785972F0
:102A9800117952799972DA72064A117899765178D1
:102AA800D9769178D27819775A77704794000020B0
:102AB8009A00002090000020FEE7FEE7FEE7FEE710
:102AC800FEE77047704770470120704708B500F06F
:102AD8008FF8162303604FF0FF3008BD08B500F0EB
:102AE80087F816230360FEE7034AD2F8883043F4D8
:102AF8007003C2F88830704700ED00E0164B9A6802
:102B080002F00C02042A22D0082A22D159685A68F5
:102B180049025B6802F03F0248BF1049C3F38813BB
:102B280058BF0F49B1FBF2F253430B4A5268C2F344
:102B3800014201325200B3FBF2F3074A0949926895
:102B4800C2F303128A5CD340074A13607047034BF1
:102B5800F3E7034BF1E700BF0038024000127A00A8
:102B68000024F400542D0008D0000020DFF834D0F1
:102B7800FFF7BAFF0C480D490D4A002302E0D4586C
:102B8800C4500433C4188C42F9D30A4A0A4C0023AF
:102B980001E013600432A242FBD300F02FF8FEF7E5
:102BA8002FFD7047000008200000002024010020AD
:102BB8000C2F000840010020BC140120FEE710B5CE
:102BC80001390244904201D1002005E0037811F850
:102BD800014FA34201D0181B10BD0130F2E7024497
:102BE8000346934200D1704703F8011BF9E7000040
:102BF800014B1868704700BFD400002070B50D4D18
:102C08000D4C641BA4100026A64209D10B4D0C4C98
:102C180000F072F8641BA4100026A64205D170BD0E
:102C280055F8043B98470136EEE755F8043B9847BA
:102C38000136F2E7FC2E0008FC2E0008FC2E0008E6
:102C4800082F00080A44914200F1FF3300D1704771
:102C580010B511F8014B03F8014F9142F9D110BD9D
:102C680008B5062000F02CF80120FFF737FF1F29D0
:102C780038B505460C4604D9162303604FF0FF30DB
:102C880038BDC26B12B152F821304BB9284600F05A
:102C980031F8224601462846BDE8384000F018B809
:102CA800012B0AD0591C03D1162303600120E7E742
:102CB800002142F82410204698470020E0E7000051
:102CC800024B01461868FFF7D2BF00BFD4000020AE
:102CD80038B5074D00230446084611462B60FFF718
:102CE800F5FE431C02D12B6803B1236038BD00BF39
:102CF800B8140120FFF7E8BEF8B500BFF8BC08BC5F
:102D08009E467047F8B500BFF8BC08BC9E467047A1
:102D18000200000000C007200103000100010009B3
:102D280001000000010000000080072001030100ED
:102D38000000000D0100000000000000000000007D
:102D4800010000010000871F0100000000000000D2
:0C2D580000000000010203040607080947
:102D640008B10181B0B000840000000008B1018105
:082D7400B0B000840000000073
:102D7C00BCD4FF7F0100000058D5FF7FB0A90280B2
:102D8C00E8D5FF7FB0B0A88038D6FF7F01000000E7
:102D9C0044D6FF7FB0B0AA8078D6FF7FAE75B280E4
:102DAC0048D7FF7F0100000044D7FF7FAB3F3A803C
:102DBC00A4D7FF7F01000000ACD7FF7FB0B0AA8082
:102DCC00E8D7FF7F010000009CD8FF7FAA0FB280DC
:102DDC0018D9FF7FB0AF0880B4DBFF7F0100000083
:102DEC00B8DBFF7FAC3F03808CDEFF7F010000006F
:102DFC0068E0FF7F008404807CE0FF7F010000001E
:102E0C0078E0FF7FB0AD04806CE3FF7FB0A8038057
:102E1C0090E3FF7F44FFFF7F94E3FF7F48FFFF7F3A
:102E2C00A0E3FF7F0100000018E7FF7FB0AB048038
:102E3C00CCE7FF7FB0B0AC80C4E8FF7F010000009E
:102E4C00E0E9FF7FB0B0AC8074EAFF7F01000000C6
:102E5C00B0EAFF7FB0B0AC80F4EAFF7FAB08B18082
:102E6C0030EBFF7FB0AA0180A0EBFF7FAB08B180F5
:102E7C00D4ECFF7F0100000090EFFF7FA908B18028
:102E8C0008F0FF7F010000001CF0FF7FB0B0AC80A9
:102E9C00B0F0FF7F0100000038F1FF7FB0AA07807F
:102EAC00DCF1FF7F0100000044F2FF7FAD08B18030
:102EBC00C4F3FF7F01000000F8F4FF7FB0B0AE80D8
:102ECC0098F5FF7FA908B18004F6FF7FB0AF0280B0
:102EDC00F0F6FF7FB0AD0480D8F7FF7FB0AF0A806B
:102EEC0050FBFF7FB0A9048090FBFF7F0100000026
:0C2EFC001D02000889200008852A00083B
:042F0800F9010008C3
:102F0C004C4D414F204C4D414F204C4D414F204C8E
:102F1C004D414F204C4D414F204C4D414F204C4D7D
:102F2C00414F00000400D800000000000014001005
:102F3C00070101010000000000000000000000007B
:102F4C0008004500000000000000401100000000D7
:102F5C0000000000000013880000000000000000CA
:102F6C000000000000000000000008004500002EDA
:102F7C000000000040010000000000000000000004
:102F8C00030300000000000000000000000000002F
:102F9C00C0A8007B02123456789A00000000000092
:102FAC0000000000000008004500000000000000C8
:102FBC004006000000000000000000001388000024
:102FCC00000000000000000050020400000000009F
:102FDC000024F400D8000020000000008013012021
:102FEC00E813012050140120000000000000000034
:102FFC0000000000000000000000000000000000C5
:10300C0000000000000000000000000000000000B4
:10301C0000000000000000000000000000000000A4
:04302C0000000000A0
:0400000508002B754F
:00000001FF
