:020000040800F2
:1000000000000820952E0008B12D0008B32D00082F
:10001000B52D0008B72D0008B92D0008000000001C
:10002000000000000000000000000000BB2D0008E0
:10003000BD2D000800000000BF2D00084D24000861
:10004000E52E0008E52E0008E52E0008E52E000844
:10005000E52E0008E52E0008E52E0008E52E000834
:10006000E52E0008E52E0008E52E0008E52E000824
:10007000E52E0008E52E0008E52E0008E52E000814
:10008000E52E0008E52E0008E52E0008E52E000804
:10009000E52E0008E52E0008E52E0008E52E0008F4
:1000A000E52E0008E52E0008E52E0008E52E0008E4
:1000B0006D1200082D130008E52E0008E52E00083B
:1000C000E52E0008E52E0008E52E0008E52E0008C4
:1000D000E52E0008E52E0008E52E0008E52E0008B4
:1000E000E52E0008E52E0008E52E0008E52E0008A4
:1000F000E52E0008E52E0008E52E0008E52E000894
:10010000E52E0008E52E0008E52E0008E52E000883
:10011000E52E0008E52E0008E52E0008E52E000873
:10012000E52E0008E52E0008E52E0008E52E000863
:10013000E52E000899180008E52E0008E52E0008B5
:10014000E52E0008E52E0008E52E0008E52E000843
:10015000E52E0008E52E0008E52E0008E52E000833
:10016000E52E0008E52E0008E52E0008E52E000823
:10017000E52E0008E52E0008E52E0008000000002E
:10018000E52E0008E52E0008E52E0008E52E000803
:10019000E52E0008E52E0008E52E0008E52E0008F3
:1001A000E52E0008E52E0008E52E0008E52E0008E3
:1001B000E52E0008E52E0008E52E0008E52E0008D3
:1001C000E52E0008E52E000800000000E52E0008DE
:1001D000E52E0008E52E0008E52E0008E52E0008B3
:1001E000E52E0008E52E0008E52E0008E52E0008A3
:0801F000E52E0008E52E0008D1
:1001F80010B5054C237833B9044B13B10448AFF359
:1002080000800123237010BD400100200000000081
:10021800C83A000808B5034B1BB103490348AFF3BC
:10022800008008BD0000000044010020C83A000812
:1002380010F8012B11F8013B012A28BF9A42F7D088
:10024800D01A704703685A004CBF43F0004323F0AC
:1002580000431844704700BF2DE9F04759B301F136
:10026800FF380546164647464FF0000A0AEB0701D5
:1002780001EBD171491005EBC1094846FFF7E2FFD0
:1002880088454FEAC104034610D004F10800B34280
:10029800284407D8FFF7D6FF0138B04208D201F149
:1002A800010AE3E78A4506D04F1EDFE7B042F9D8D6
:1002B8004846BDE8F0874FF000094846BDE8F0879A
:1002C800012809D0022805D0044B00280CBF184685
:1002D800002070470248704702487047AD0900087F
:1002E800B5090008B109000830B5224B83B00446AF
:1002F8008D1E43B301A92846AFF30080F0B10199E0
:100308002A46FFF7A9FF0146C0B1FFF79BFF4B68DC
:10031800A064012B2BD0002B01F1040025DBFFF793
:1003280091FF002323650368E064002B12DBFFF7CD
:1003380089FF03460020236103B030BD0023092054
:10034800236103B030BD0C4B0C49C91AC9101846BB
:100358000191D5E7C3F30360FFF7B2FF031E0CBF9B
:1003680009200020236103B030BD0123DAE7002310
:100378000520E0E700000000583C0008D83D0008D0
:100388000368DA0710B5044606D49B0700F150004D
:1003980009D500F08FFC2368590709D51A070ED52F
:1003A800DB0613D510BD00F07DFC23685907F5D492
:1003B80004F1D80000F086FC23681A07F0D404F58D
:1003C800AC7000F087FC2368DB06EBD404F5EC7016
:1003D800BDE8104000F0C2BC0346006800B11844F4
:1003E800704700BF09207047704700BF70B50446CA
:1003F8000E46316C2046FFF777FF054688B9326C08
:100408006261236932462146012098470828F0D0C6
:10041800072806D12846316CFFF7E6FF301D00F0AB
:1004280035FC03F04BFA00BF2DE9F04701F1040C4D
:10043800C768D0F8188006469146BCE80F00ADF5AD
:10044800767D03AC0FC4BCE80F000FC4BCE80F00F6
:100458000FC49CE80F0002AD4FF0000E84E80F00B7
:10046800C5F800E021E02B6C73614FF4F472294663
:100478007CA803F0C7FA33697CAA314650469847EE
:100488008A9BAB644946CDE9005882463346012031
:100498003246B847814630BB4FF4F4727CA92846EF
:1004A80003F0B0FABAF1080F1AD1296C3046FFF7F9
:1004B8001BFF09F1090904465FFA89FA0028D2D01E
:1004C800AB6BAB643246CDE9005833464AF01001B5
:1004D8000120B84738B920460DF5767DBDE8F0878C
:1004E800BAF1070F05D0092420460DF5767DBDE841
:1004F800F0874846296CFFF777FF03A800F0C6FB92
:10050800806C7047F0B5CB6BFBB001F1040C0B6449
:100518000E460546BCE80F0001AC0FC4BCE80F004E
:100528000FC4BCE80F000FC49CE80F004FF0FF3762
:1005380084E80F00009706E02B696A462946984729
:100548000828044608D110992846FFF7CDFE002850
:10055800F2D009207BB0F0BD6846FFF711FF062CEA
:10056800F7D131462846FFF741FF00BFC160D96B7C
:10057800826119640022194656E700BF70B5C66843
:1005880043690B64AEB903690A4604460D46014641
:1005980002209847072805D008280FD12946204669
:1005A800FFF724FF3046296CFFF71EFF281D00F0D7
:1005B8006DFB0122FFF738FF03F080F903F07EF9A5
:1005C800C2681AB1CA6B0A6400222DE79AE700BF15
:1005D800704700BF836801460BB101201847704778
:1005E800052915D8DFE801F00A03140303050120E3
:1005F8007047009A436C13600020704743B90F2A74
:1006080006D800EB820200205368009A13607047F6
:100618000220704700B585B00A46002303A900915F
:100628001946FFF7DDFF039805B05DF804FB00BF2E
:10063800052915D8DFE801F00A0314030305012092
:100648007047009B1B6843640020704743B90F2A1A
:1006580006D8009B00EB82021B685360002070479D
:100668000220704710B584B0002303AC03920094B5
:100678000A461946FFF7DCFF04B010BD70B5D36B0E
:10068800ADF5107D02F1040C136405460C46BCE878
:100698000F000DF15C0EAEE80F00BCE80F00AEE8ED
:1006A8000F00BCE80F00AEE80F009CE80F004FF009
:1006B800FF368EE80F00169610E0FFF7D3FF2146AD
:1006C80016A8A847034616AA0820694683B9049BBA
:1006D8009847052806460CD0092809D02699684667
:1006E800FFF702FE03460C216A4616A8002BE4D049
:1006F800092616A8FFF744FE30460DF5107D70BD9B
:100708002DE9F04F1646CA6C89B00D4652F8041B05
:10071800069200F0030C002B79D00C0C8DF81D40CC
:100728000904E4B2059102EB840202218DF81C1041
:10073800296DBCF1020F08BFAA6B11F0010809D09E
:1007480005A9304600F0A4FB002856D1082009B0BE
:10075800BDE8F08F1768002FF2D000F00801CDE94E
:100768000118E3469A46BAF1020F4CD0178854880C
:1007780002F10409AA6C24F001030F21304603EBAF
:100788000208FFF747FF80453BD827F0010202EB3C
:100798000803834294BF00230123640004F0020489
:1007A80007F001072743012F4ED0022F35D027BB72
:1007B800BBF1000F02D0002B40F0D38009F10402F6
:1007C8001768002FCFD105A93046DDF8088000F062
:1007D8005FFB90B9B8F1000FB8D00F213046FFF792
:1007E80019FF0E2102463046FFF73CFF6C4A0F21E5
:1007F8003046FFF737FF072000E0092009B0BDE8C1
:10080800F08F0023C9E7546802F10809B2E709022A
:1008180005918DF81D30032188E7D9F8004024F0B0
:100828000048BBF1000F47D12BB1019B002B5CD0D6
:10083800B8F1000F59D0002C01DA09F1040908F1C8
:10084800010209EB8202BBE7BBF1000F1CD1C3B167
:10085800D9F80430D9F80020991C4FEAD272CCD0CC
:1008680005F158040133049400F08E8009F1040066
:10087800FFF7B2FD04AB0146284602F053FB0028FF
:1008880059D109F108029BE70D213046FFF7C2FE56
:100898002C6A8442F5D1AB6A9945F2D14846FFF7F4
:1008A800D1FC0F2102463046FFF7DCFE2A46002124
:1008B8003046FFF7D7FE9EE70D213046FFF7AAFE28
:1008C8002F6A8742B7D1AB6A9945B4D10024042373
:1008D800C5E90B434B44C5F828806B63D9F8003051
:1008E800A34258DB01230293A9E705F15803CDF889
:1008F8000CB009F10407B34600241E460BE0384645
:100908000496FFF769FD0022014604AB284602F071
:1009180009FB0437F8B9444504F10104EFD10D216E
:100928005846FFF777FE049BC5F828900246C5E9AC
:100938000823062062E704460D213046FFF76AFEC9
:10094800049E2862022C04BFEE6205F12C06C5E95C
:100958000969062052E75E46D9F80040DDF80CB078
:1009680069E74846FFF76EFC09F104030446AB63E8
:10097800284602F029FB00283FF43FAF22460F210A
:100988003046FFF76FFE36E730460D21FFF742FE8F
:1009980026462862DBE708F1010209EB82007EE7C0
:1009A8000D3800080023ABE60123A9E60223A7E6D9
:1009B8002DE9F0410646C4B01446052900F2E88046
:1009C800DFE811F012002D00E60066008B0006003B
:1009D800836B002C40F0DC8053F8042B4264836363
:1009E800002044B0BDE8F081002B40F0D180856B39
:1009F8001FFA84FC012006F1040E00FA03F111EA43
:100A08000C0F2A4604D052F8041B4EF82310154642
:100A18000133102BF1D1A704E2D4B563E0E7012B31
:100A28004FEA1447A4B27CD0052B40F0B18007EB05
:100A38000408B8F1200F00F2AB800F2F40F2AA8013
:100A4800002CCDD00268550700F1FF80019302AD5C
:100A5800284600F03BF96400A7F11000B26B019B37
:100A6800611E05EBC0000131043802EB810152F828
:100A7800044B40F8044F8A42F9D1012B00F0CD8095
:100A88000F2FB26340F2E980284600F01BF9A7E770
:100A9800032B7DD1A7B207EB1443102B4FEA144464
:100AA80076D80368190700F1A48022AD284600F023
:100AB80033F97A00B06B05EBC404531E42B1011B35
:100AC800625844F8042B013B5A1CF9D100EBC700CB
:100AD800B063284600F0FEF882E7002B58D1102CAE
:100AE80056D80368D8067CD422AD284600F040F9D1
:100AF800B76B294600234FF0010C0CFA03F222428F
:100B0800384603F1010303D050F8042B0A60074666
:100B1800042B01F10401F0D1B763284600F01EF957
:100B28005EE73A19102A33D8102F31D00268D1075E
:100B380008D5304622F0030240F8502B019300F00C
:100B4800B5F8019B019322AD284600F0AFF8B16BD0
:100B5800019B002C62D06200013A05EBC7004FF000
:100B680000080132043801EB820251F8044B40F8C6
:100B7800044F9142F9D1B8F1000F42D1012B4DD069
:100B88000F2FB1633FF62CAF284600F093F827E704
:100B9800022026E70268B8F1100F02F0010143D9DC
:100BA80051B122F0010242F0020240F8502B0193A9
:100BB80000F084F83268019B0193500751D422ADAC
:100BC800284600F07BF802A800F080F8C7F1100270
:100BD8005200B16B019BA8F11008013A05EBC70060
:100BE800BFE723F01003336006F5EC7000F0C0F89F
:100BF8007AE723F00803036000F5AC7000F08CF886
:100C080053E7102F384638BF10204FEA48011038F4
:100C180002AD013905EBC00025E722AD0431B1630F
:100C2800284600F03FF8DBE619BB22AD28460193C1
:100C380000F044F8B16B002CA6D06200019B013A89
:100C480005EBC7004FF000088BE722F0040240F8DC
:100C5800D82B019300F03AF8F9E622A800F02AF818
:100C680012E7304622F0040240F8D82B00F02EF8A4
:100C7800A5E7304622F0010242F0020240F8502B6C
:100C8800019300F01BF8019BCFE700BF00F134018E
:100C980091E838009C46A6464CF8045D90E8FF0FA2
:100CA800E54600BD90EC210B704700BF80EC210B9E
:100CB800704700BF90EC200B704700BF80EC200B02
:100CC800704700BFD0EC200B704700BFC0EC200B72
:100CD800704700BFF0EC0201F0EC0211F0EC0221C9
:100CE800F0EC0231F0EC0241F0EC0251F0EC026160
:100CF800F0EC0271F0EC0281F0EC0291F0EC02A150
:100D0800F0EC02B1F0EC02C1F0EC02D1F0EC02E13F
:100D1800F0EC02F1704700BFE0EC0201E0EC0211D8
:100D2800E0EC0221E0EC0231E0EC0241E0EC02519F
:100D3800E0EC0261E0EC0271E0EC0281E0EC02918F
:100D4800E0EC02A1E0EC02B1E0EC02C1E0EC02D17F
:100D5800E0EC02E1E0EC02F1704700BFB0FC018179
:100D6800B0FC0191B0FC01A1B0FC01B1704700BF1B
:100D7800A0FC0181A0FC0191A0FC01A1A0FC01B193
:100D8800704700BFEC4600B52DE900502DE9FF1F64
:100D98004FF000032DE90C0001A9FFF7B3FBDDF8C4
:100DA80040E012B0704700BFEC4600B52DE9005096
:100DB8002DE9FF1F4FF000032DE90C0001A9FFF7F3
:100DC800DDFBDDF840E012B0704700BFEC4600B52F
:100DD8002DE900502DE9FF1F4FF000032DE90C000D
:100DE80001A9FFF7EDFBDDF840E012B0704700BF46
:100DF800EC4600B52DE900502DE9FF1F4FF0000328
:100E08002DE90C0001ABFFF7B1FBDDF840E012B0B3
:100E1800704700BFEC4600B52DE900502DE9FF1FD3
:100E28004FF000032DE90C0001AAFFF727FCDDF8BD
:100E380040E012B0704700BF027A03467AB9427A9E
:100E4800A2B14168013A10B44272086803220C1D2D
:100E58001A7202025C60000E10BC1A6070470068CB
:100E6800013A1A7202021A60000E7047B0207047E9
:100E780000B585B003AA0023009219460C22FFF79B
:100E8800AFFB039805B05DF804FB00BFF0E700BFB7
:100E98002DE9F043064685B00D464FF00008284678
:100EA800FFF7CAFFB028044600F01C8107065BD58F
:100EB80000F0F003A02B1AD030D8802B00F08280ED
:100EC800902B27D100F00D030D2B23D002AF002368
:100ED80000F00F02194600973046FFF781FB002308
:100EE80000970D2219463046FFF7A2FBD7E7C34308
:100EF80003F007034FF47F621A41010702F47F628F
:100F080001D542F48042002319463046FFF750FDD0
:100F18000028C4D0092005B0BDE8F083B02B68D004
:100F2800C02B3DD1C62800F0CA80C72800F0DF805A
:100F380000F0F803C02B00F0EC80C82800F0F78020
:100F4800C928E7D12846FFF777FF020300F00F0012
:100F580002F4702201300243012105233046FFF7D5
:100F680027FD00289BD0D5E78300DBB21F1D0DF1BC
:100F7800080900231946CDF800900D223046FFF7E6
:100F88002FFB029BCDF8009060064CBFDF1BFF18BB
:100F980000230D22194630460297FFF749FB7EE7EA
:100FA80000F0F803D02BB5D100F007020132052379
:100FB80042F4002201213046FFF7FAFC00283FF4F2
:100FC8006EAFA7E72846FFF737FF24022043B0F5A6
:100FD800004F9FD004010023A2B219463046FFF704
:100FE800E7FC002896D114F4004F18BF4FF0010811
:100FF80055E7A0F1B103042B00F2B580DFE803F058
:101008005529160C030003AA0023009219460D2245
:101018003046FFF7E5FA42E700231A460521304635
:10102800FFF7C6FC00283FF43AAF73E72846FFF7FE
:1010380003FF020300F00F00013002F470220123C5
:10104800024319463046FFF7B3FC00283FF427AFA8
:1010580060E700230DF108090D221946CDF800902C
:101068003046FFF7BDFA2846FFF7E6FE0206029C67
:101078004FF002070BD500F07F00B8400444284623
:101088000294FFF7D9FE030607F10707F3D4B84027
:10109800002304F501740444CDF800900D2219468C
:1010A80030460294FFF7C4FAF9E62846FFF7C4FE73
:1010B800431EDBB20E2B02467FF625AF2AE72846F1
:1010C800FFF7BAFE020300F00F00013002F47022AD
:1010D8000323024319463046FFF76AFC00283FF411
:1010E800DEAE17E7B8F1000F2DD0002013E7284631
:1010F800FFF7A2FE431EDBB20E2B02463FF60AAFF5
:10110800002304213046FFF753FC00283FF4C7AE04
:1011180000E700F00F020132032342F420221946AF
:101128003046FFF745FC00283FF4B9AEF2E6284602
:10113800FFF782FE00F0F00200F00F0310320133D7
:1011480043EA023208E702AC4346414600940E22C5
:101158003046FFF745FA0F22009443464146304691
:10116800FFF766FAC1E700F0FC03B42B3FF4D2AEF8
:1011780000F007020132012342F4002219463046EA
:10118800FFF716FC00283FF48AAEC3E610B5C26C20
:10119800536884B04FF0030C08321C0208461B0E3B
:1011A80001A9019402928DF80CC08DF80D30FFF75B
:1011B8006FFE04B010BD00BF08B5FFF767FE806C76
:1011C80008BD00BF08B5FFF761FEC06CC37900EB2E
:1011D8008300083008BD00BFBFF34F8FBFF36F8F88
:1011E800084B0022C3F85022BFF34F8FBFF36F8F15
:1011F8005A6942F400325A61BFF34F8FBFF36F8FC1
:10120800704700BF00ED00E010B4154B0022C3F892
:101218008420BFF34F8FD3F88040C4F34E3000E0F2
:101228001846C4F3C90243F6E07303EA401343EADD
:1012380082730B49C1F860321346013A002BF2D190
:10124800431E0028ECD1BFF34F8F4B6943F4803322
:101258004B61BFF34F8FBFF36F8F5DF8044B70473F
:1012680000ED00E04FF080431B6913F0080F17D022
:101278004FF08043DB6B284A1278002A2ED1274A88
:101288001360254B01221A704FF08042136A43F411
:10129800007313624FF08042136923F0080313614F
:1012A8004FF080431B6913F0100F16D04FF08043A6
:1012B8001B6C194A527802BB184A5360164B01221C
:1012C8005A704FF08042136A43F4005313624FF090
:1012D8008042136923F01003136170470F4A1268A4
:1012E8009B1A0F4A13600C4B00221A704FF0804271
:1012F800136A23F400731362CCE7084A52689B1AF6
:10130800074A5360044B00225A704FF08042136A18
:1013180023F400531362DAE75C0100207C0100200B
:1013280064010020564B1B6913F0020F16D0544B72
:101338005A6B93B253498978002964D11A46524BA3
:101348009A60504B01229A704D4A136A43F0020387
:1013580013624B4A136923F002031361484B1B695C
:1013680013F0040F16D0464B9A6B93B24549C978CF
:10137800002957D11A46444BDA60424B0122DA70F1
:101388003F4A136A43F0200313623D4A136923F06E
:10139800040313613A4B1B6913F0080F16D0384B3E
:1013A800DA6B93B23749097900294AD11A46364B84
:1013B8001A61344B01221A71314A136A43F40073DB
:1013C80013622F4A136923F0080313612C4B1B691E
:1013D80013F0100F16D02A4B1A6C93B22949497989
:1013E80000293DD11A46284B5A61264B01225A71D1
:1013F800234A136A43F400531362214A136923F002
:10140800100313617047204A92689B1A9BB21F4AC7
:1014180093601C4B00229A70194A136A23F0020346
:10142800136296E7184AD2689B1A9BB2174AD36090
:10143800144B0022DA70124A136A23F02003136255
:10144800A3E7114A12699B1A9BB2104A13610D4B0C
:1014580000221A710A4A136A23F400731362B0E770
:10146800094A52699B1A9BB2084A5361054B0022EC
:101478005A71034A136A23F400531362BDE700BF8D
:10148800000400405C0100207C0100206401002071
:10149800284A136C43F0010313644FF080434FF064
:1014A800FF32DA626B229A6201225A611A6922F0CB
:1014B80001021A611A6A22F480721A621A6AD969D8
:1014C80022F4206242F4007221F0030141F001018C
:1014D800D9611A620822DA601A6A22F480721A62E2
:1014E8001A6A42F480721A621A6A22F480521A62E4
:1014F8001A6AD96922F4204242F4005221F4407158
:1015080041F48071D9611A621022DA601A6A22F4F1
:1015180080521A621A6A42F480521A621A6842F0B9
:1015280001021A60044B002283F81C234FF08052FA
:101538001A6070470038024000E100E0424A136C2C
:1015480043F002031364414B4FF0FF32DA626B221F
:101558009A6201225A611A6922F001021A611A6A12
:1015680022F001021A621A6A996922F00A0242F00C
:10157800020221F0030141F0010199611A6202227D
:10158800DA601A6A22F001021A621A6A42F001024B
:101598001A621A6A22F010021A621A6A996922F00B
:1015A800A00242F0200221F4407141F48071996157
:1015B8001A620422DA601A6A22F010021A621A6A9F
:1015C80042F010021A621A6A22F480721A621A6AC7
:1015D800D96922F4206242F4007221F0030141F03B
:1015E8000101D9611A620822DA601A6A22F480724B
:1015F8001A621A6A42F480721A621A6A22F48052D3
:101608001A621A6AD96922F4204242F4005221F47B
:10161800407141F48071D9611A621022DA601A6A45
:1016280022F480521A621A6A42F480521A621A68C4
:1016380042F001021A60064B002283F81D234FF086
:1016480000521A60704700BF003802400004004092
:1016580000E100E02DE9F04385B02D4A136B43F01B
:101668007F03136301AC002301936360A360DFF879
:10167800B090CDF804904FF002088DF8088003254B
:101688008DF80A500B238DF80C30862394E8070058
:1016980000F0ADFB1F4E01960D2394E8070000F003
:1016A8004FFB1D4F0197322394E8070000F09FFB82
:1016B8001A4B01934FF4205394E8070000F097FB6E
:1016C800019601238DF80B308DF80C300A2394E82D
:1016D800070000F035FBCDF804902B4694E807008E
:1016E80000F02EFB8DF80C80062394E8070000F02C
:1016F80027FB0197072394E8070000F021FB0196D8
:101708002B4694E8070000F072FB05B0BDE8F083B3
:10171800003802400004024000080240001802405D
:1017280000000240FEE7000010B500F0D9FBFFF70B
:1017380053FDFFF769FD1C49CA6822F4E0621204F0
:10174800120C1A4B1343CB6062B600F067FE1848C0
:1017580000F094FD08B1FFF7E5FF00F069FEFFF720
:1017680079FF00F0E5F9FFF793FEFFF7E7FE00F0D9
:101778009FFE00F079FE044600F0BAF800F074FE0F
:10178800001B46F2A8139842F6D900F06DFE0446F5
:10179800084B93F8AD30022BEED1232206490748B7
:1017A80001F0DEFAE8E700BF00ED00E00003FA050B
:1017B8002400002024FA00200000002094FA0020D1
:1017C80010B400231AE0144A580102EB43114FF0F9
:1017D800004414504FF48C40486003EB430C4FEA2C
:1017E8004C200E4C20448860581C00F0070C02EB7B
:1017F8004C12CA600A4A42F823100346072BE2D962
:10180800074B00225A62044A1A6204499962054B3E
:10181800DA605DF8044B704700C00720008007209D
:10182800C40100200090024010B4002319E0144ABB
:10183800580102EB43114FF4801414500020486003
:1018480003EB430C4FEA4C200E4C20448860581C94
:1018580000F0030C02EB4C12CA600B4A42F823104A
:101868000346032BE3D9084B00221A765A76044A1A
:101878001A610449D961054B1A615DF8044B704738
:1018880000C1072000020020A401002000900240AF
:10189800124A5369D26913F0400F08D012F0400F72
:1018A80005D00E490E4848610E490120086013F022
:1018B800010F12D012F0010F0FD0084B4FF0011298
:1018C8005A61094A537E013303F00303537652F8F1
:1018D80023301361054B01221A60704700900240C3
:1018E80040000100A0010020A40100209C0100206C
:1018F80010B5284B1B68BFF35B8F13F0010F03D1A2
:10190800244801F030FE60B900F0AEFD224B1B68A0
:10191800C01A63280DD8214B00221A60204B5C6A3C
:1019280018E000F0A1FD1C4B18601A4801F02AFECF
:10193800EAE700F0D3FF00F097FD174B1860EAE7DD
:101948006301184A4FF00041D150BFF34F8F013463
:1019580004F007046301134AD358002B12DB03F485
:101968004072B2F5407FEBD1C3F30D430C48C3621C
:101978000C4B03EB44139A68826203620A4900F035
:1019880019FCDDE7064B5C6210BD024801F0F7FD6B
:1019980001F0A5FA9401002098010020A001002080
:1019A800C401002000C00720A40100200E4A137EB5
:1019B80052F82330C0F30C005860137E52F82330DD
:1019C8000A491960BFF35F8F094B00215960137EE4
:1019D800013303F00303137603EB4303054901EBDB
:1019E8004323D361704700BFA4010020000010F01A
:1019F800009002400002002070B51546114A136994
:101A0800C00280B203F01C030343890101F4F861AA
:101A18000B4343F00104146100F026FD064614F060
:101A2800010F09D0074B1C6900F01EFD801B41F215
:101A380088339842F3D903E0024B5B699BB22B6071
:101A480070BD00BF0080024038B5104D2B69C00240
:101A580080B203F01C030343890101F4F8610B43CE
:101A680043F0030492B26A612C6100F0FDFC054664
:101A780014F0010F08D0054B1C6900F0F5FC401B61
:101A880041F288339842F3D938BD00BF0080024044
:101A980010B584B000200390029001904FF40042EA
:101AA8000146FFF7D1FF00F0DFFC044604E003AA7B
:101AB80000210846FFF7A0FF039B13F4004F08D04E
:101AC80000F0D2FC001B41F288339842EFD904B0F1
:101AD80010BD4FF4805200210846FFF7B5FF00F013
:101AE800C3FC0446029B13F0200F0CD100F0BCFC91
:101AF800001B4CF250339842E9D802AA0121002079
:101B0800FFF77AFFEEE700F0AFFC044604E001AA15
:101B180001210020FFF770FF019B13F0040FD6D1BD
:101B280000F0A2FC001B41F288339842EFD9CEE7BF
:101B380070B582B04E4B5A6C42F480425A645B6C6A
:101B48004C4B5A6842F400025A605B684A4A136870
:101B580043F00103136000F087FC0446464B1B6802
:101B680013F0010F05D000F07FFC001B0A28F5D9FF
:101B78007CE0424C424B23602568012000F06AFC5F
:101B880025608023A361A569012000F063FCA5619D
:101B980004F580553B4BAB61AE69012000F05AFC5F
:101BA800AE6102238DF8003012238DF80130342302
:101BB8008DF8023056238DF8033078238DF80430E1
:101BC8009A238DF8053049F6782323642E4B6364F5
:101BD8002E4B2B602E68012000F03CFC2E60FFF796
:101BE800EFFDFFF721FEE36B43F40273E363D4F8E0
:101BF8000C21274B1343C4F80C31D4F8103143F4AB
:101C08000313C4F81031EA69224B1343EB61EB6903
:101C1800FFF73EFF236843F008032360266801208E
:101C280000F018FC2660236843F00403236026684C
:101C3800012000F00FFC2660AB6943F48013AB6110
:101C4800012000F007FCAB6923F48013AB61AB699A
:101C580043F40053AB61AB6943F00203AB610E4B35
:101C68004FF000525A60002283F83D2302B070BD45
:101C780000380240003801400090024000800240D5
:101C88000C4E000240002002021234568220C1028B
:101C9800600002004100010000E100E0002308E0CC
:101CA80090F800C0427842EA0C221344023002390C
:101CB80089B20129F4D829B1027803EB022301E0A3
:101CC80012FA83F31A0CFBD1D84380B2704700B5DF
:101CD80090F800E090F801C04CEA0E2C90F802E071
:101CE800C07840EA0E20604491F800E091F801C005
:101CF8004CEA0E2C844491F802E0C87840EA0E20A1
:101D0800604406301844002101E0604402318B42EF
:101D180010DD12F801C04FEA0C2C01F1010E9E45AE
:101D2800F3DA02EB010E9EF801E04EEA0C0CECE748
:101D380013FA80F0030CFBD1C04380B25DF804FBBA
:101D480010B584B004AC04E907004FEA430C02461E
:101D58000468032101FA0CF124EA01049DF808E063
:101D68000EFA0CF02043106054680120984024EAD1
:101D780000049DF80900984020435060946824EAC4
:101D880001049DF80A0000FA0CF020439060D06826
:101D980020EA01009DF80B1001FA0CF10143D16013
:101DA800BEF1020F01D004B010BD072B0ED8106A87
:101DB8009C000F21A14020EA01009DF80C1001F0C1
:101DC8000F0101FA04F303431362ECE7506AA3F12D
:101DD8000804A4000F21A14020EA01009DF80C107E
:101DE80001F00F0101FA04F303435362DBE770B516
:101DF80084B004AC04E9070000220FE04D6AA2F1A8
:101E08000804A4000F20A04025EA00059DF80C0056
:101E180000F00F00A0402843486201320F2A3EDC40
:101E2800012090401842F8D0540001990E684FF0F4
:101E3800030C0CFA04FC26EA0C069DF808E00EFADE
:101E480004F535430D604D6825EA00059DF8090045
:101E58009040284348608D6825EA0C059DF80A00E3
:101E6800A04028438860C86820EA0C0C9DF80B0045
:101E7800A04040EA0C00C860BEF1020FCDD1072A8D
:101E8800BCDC0C6A95000F20A84024EA00049DF8E9
:101E98000C0000F00F00A84020430862BDE704B022
:101EA80070BD0000BFF35F8F044B5A6A22F4803282
:101EB8005A620022C3F89420704700BF00ED00E08A
:101EC800064B0522C3F894205A6A42F480325A62BB
:101ED800BFF34F8FBFF36F8F704700BF00ED00E077
:101EE80008B5FFF7DFFF184B0021C3F89810D3F8A7
:101EF800A02022F00102C3F8A020C3F89C10134AC6
:101F0800C3F8A0200122C3F89820D3F8A02022F01B
:101F18000102C3F8A0200E4AC3F89C200D4AC3F85A
:101F2800A0200222C3F89820D3F8A02022F00102B2
:101F3800C3F8A020084AC3F89C20084AC3F8A02088
:101F4800FFF7BEFF08BD00BF00ED00E03F870410AB
:101F5800008007201B00081300C00720130005138A
:101F68002DE9F041164A92F80080164B83F8068056
:101F78005778DF7196781E72D5785D7214799C72E5
:101F880092F805E083F80BE00F4A92F800C083F856
:101F98001AC05078D87691781977D2785A770B4B3F
:101FA80083F80680DF711E725D729C7283F80BE005
:101FB80083F81AC0D87619775A77BDE8F08100BF40
:101FC80098000020600000209400002034000020C9
:101FD800F8B5844643691C68254DA64605F13007C7
:101FE8002E460FCECEF80000CEF80410CEF808200A
:101FF800CEF80C3035460EF1100EBE42F0D13388C3
:10200800AEF80030DCF808301A6822609B88A3809C
:10201800DCF80C301B68C4F81E309CF8045005F13D
:102028000802DCF8101004F12A0001F0EBFC05F1BD
:1020380024031E461A0A22746374142104F10E0044
:10204800FFF72CFEC0F30F232376607605F110010D
:1020580004F12200FFF722FEC0F30F2384F8243096
:1020680084F8250006F10E00FFF7A0FCF8BD00BFBC
:102078006000002008B50369027913449A78DB7878
:1020880043EA02231BB241F28832934200D108BDD1
:10209800FFF79EFFFBE70000F8B501690379CB5C09
:1020A800082B00D0F8BD044643691D6805F10E07EA
:1020B800064636F8082B384601F0A4FCA3682B60C6
:1020C800B388AB80184B1868C5F806009B886B81ED
:1020D80008232B7300266E73144B1B68C5F81A303F
:1020E800E3681B68C5F81E302E766E76217938466F
:1020F800FFF7D4FDC0F30F232B7668762379FD18FC
:10210800FE54AE70EE7021882379C91A89B2284628
:10211800FFF7C4FDC0F30F23AB70E87020880E30C2
:10212800FFF744FCBEE700BF9800002094000020A1
:10213800F8B54688292E0BD9044687697B7D012B83
:1021480006D10422194907F1260001F0D3FB00B19A
:10215800F8BD63691D68A6F10C0207F10C0105F1D1
:102168000C0001F04FFCA3681A682A609B88AB80BA
:102178000F4B1868C5F806009B886B8100222A75EA
:1021880002226A75C5F816006B83084B1B68EB6161
:10219800A3681A682A629B88AB84E3681B68C5F841
:1021A80026306088FFF702FCD2E700BF94000020C9
:1021B80098000020C26A0D2A59D970B588B0044623
:1021C8000D46866A317B737B43EA01231BB240F6D6
:1021D80006018B4210D0212A0CD90422244906F189
:1021E8001E0001F087FB28B9236A1A6902F0500320
:1021F800402B0FD008B070BD07961C35069506F128
:10220800160303931C360496ADF8062001A8FFF7C1
:102218008FFFEFE707961C35069506F10E0105912D
:10222800B37B03F00F039B008DF80830307C737C80
:1022380043EA0023ADF8043006F11A030493063686
:10224800039602F00303032B09D012F0010F0AD101
:1022580012F0020FCED001A800F0BAFBCAE701A81D
:10226800FFF71AFFC6E701A8FFF704FFC2E77047A8
:102278009400002008B5FFF773FE08BD38B5044682
:1022880090F804E0C188B0F808C04089257B23781D
:10229800023BDBB23D2B06D96388323B9BB2B3F5D8
:1022A800BF7F00F2A580564B1A681A601B68637BD3
:1022B800EBB1A37B23B1534A136843F48023136023
:1022C800504A136843F48033136000234D4A126860
:1022D80012F4003F0BD1B3F5805F01D80133F5E765
:1022E800484A136823F48033136001207FE0237881
:1022F800628843EA821343EA0E43627B9AB14FF441
:10230800800213433F4A5360136843F0807313609D
:1023180000233C4A126812F0007F13D1B3F5805FA6
:1023280003D80133F5E70022EBE7364A136823F0B8
:1023380080731360637B1BB1136823F480331360CD
:10234800022054E02E4A136843F4803313600023BC
:102358002B4A526812F4803F04D1B3F5805F49D804
:102368000133F5E7264A136843F40033136000236A
:10237800234A526812F4003F04D1234A93423BD8BF
:102388000133F5E7214B1D60A3F580639A6841EAA4
:102398000C0101430A439A609A6842F002029A606B
:1023A800184B9B6803F00C03082BF9D100F01EFDB5
:1023B800E37BA3B1164B1B68164AA2FB03239B09B8
:1023C800013BB3F1807F0AD24FF0E0225361124BF8
:1023D800F02183F823100023936107231361637BA3
:1023E80063B1084A136823F001031360002038BD65
:1023F8000320FCE70220FAE70220F8E70020F6E7CE
:102408000070004000380240400D0300003C0240CC
:10241800D8000020D34D621000ED00E0034B1A6C89
:1024280042F080521A641B6C704700BF00380240AB
:10243800034B1A6B42F060621A631B6C704700BF53
:1024480000380240024A136801331360704700BF26
:10245800001A0020034B1A68024B1B689B1A834220
:10246800FAD37047001A0020014B1868704700BF64
:10247800001A00200B4A11780B4B99715178D971C9
:1024880091781972D1785972117999725279DA72F0
:10249800064A117899765178D97691781977D27851
:1024A8005A77704798000020A00000209400002070
:1024B80008B54FF6601200210B4801F02BFA0023F3
:1024C8000A4A13700A4A13700A4A0B49116007E056
:1024D80006490A78501C087008498B540133DBB24E
:1024E800092BF5D908BD00BF241A0020081A0020BE
:1024F800161A0020041A0020C00100200C1A00201F
:102508000C4B1B787BB10C4A1278092A0ED8013B78
:10251800DBB208490B700949C85C511C064B19709D
:10252800074B985470474FF0FF3070474FF0FF301B
:10253800704700BF081A0020161A00200C1A002045
:10254800181A002010B50446002304E0013A124B83
:102558001A7011E00133104A12789A421ADD0F49B5
:10256800C95CA142F6D1511E9942EFD0CAB20A49BC
:102578000A700A498A5CCA5441F6F00200210848E8
:1025880002FB040001F0C6F9064A1378591C1170C1
:10259800054AD45410BD00BF161A0020181A00208E
:1025A800241A0020081A00200C1A00202DE9F04FE8
:1025B80083B005460091019298460C9E434B1B68D8
:1025C8001C6804F10E0E04F12207DFF808A1A146E9
:1025D8000AF1300BD446BCE80F00C9F80000C9F86E
:1025E8000410C9F80820C9F80C30E24609F11009AE
:1025F800DC45EFD1DCF80000C9F80000BCF8042085
:10260800A9F80420AB681A6822609B88A38000237D
:10261800237428236374EB681A7893F801C04FEA8F
:102628000C4C4CEA026C9A784CEA022CDA784CEAA8
:10263800020C4FEA0C2303F47F0343EA02634FEAD8
:102648001C2202F47F42134343EA1C63C4F81E3081
:1026580014217046FFF722FB40BA2083009B93FAAF
:1026680093FAA4F822A0019B93FA93F9A4F8249072
:102678004FEA082202F47F0242EA08624FEA18236E
:1026880003F47F431A4342EA1863C4F8263032023F
:1026980002F47F0242EA0662330A03F47F431343DB
:1026A80043EA1663C4F82A309DF8343084F82F3092
:1026B80014233A46E9680648FFF709FB40BA6086E2
:1026C8003620FFF773F903B0BDE8F08F041A002035
:1026D80094000020A00000202DE9F8430446254B73
:1026E8001B681D6805F10E0E05F12206224FAC4647
:1026F80007F12009B846B8E80F00CCF80000CCF87C
:102708000410CCF80820CCF80C3047460CF1100C1B
:10271800C845EFD1B8F80030ACF80030D4F83730FD
:102728002B60B4F83B30AB80638E28335BBA2B82C6
:10273800E269130203F47F0343EA0263110A01F416
:102748007F410B4343EA1263C5F81E3014217046DB
:10275800FFF7A4FA40BA2883628E41F23E41214431
:10276800304601F04FF9608E2230FFF71FF9BDE8BF
:10277800F88300BF041A0020A00000202DE9F04FC4
:1027880085B005468A4691460193BDF84060504B96
:102798001B681C6804F10E03009304F12208DFF89B
:1027A80038E127460EF1300BF446BCE80F003860DC
:1027B8007960BA60FB60E6461037DC45F4D1DCF896
:1027C80000003860BCF80420BA80D5F837302360A0
:1027D800B5F83B30A38006F128035BBA2382E96988
:1027E8000A0202F47F0242EA01620B0A03F47F4301
:1027F800134343EA1163C4F81E3014210098FFF70D
:102808004DFA40BA2083EB8D5BBA6384AB8D5BBA1B
:10281800A3844FEA0A2101F47F0141EA0A614FEAE1
:102828001A2303F47F430B4343EA1A61C4F82610C2
:102838004FEA092101F47F0141EA09614FEA1923AE
:1028480003F47F43194341EA1962C4F82A202B8D07
:102858005BBA2386019B84F82F300EBBEB691A0EF6
:102868008DF80C201A0C8DF80D201A0A8DF80E2000
:102878008DF80F3006F11407BFB23B46424603A954
:102888001448FFF724FA40BA60869DF83830012BC7
:102898000DD006F13600FFF789F805B0BDE8F08FD6
:1028A80032460F9904F1360001F0ACF8D6E706F18C
:1028B8001402414641F23E40284401F0A3F86F86D5
:1028C800FFF7D2FD2861002385F83430E1E700BF27
:1028D800041A002094000020A000002070B584B0E5
:1028E800384B1D78013D18E02046FFF72BFE13E01A
:1028F800FFF7BAFD344B41F6F00202FB04335B6884
:10290800C01A44F62063984206D92F4B02FB0433C1
:1029180093F83D30022B23D0013D002D50DB2B4B8B
:102928005C5D41F6F003284E03FB04663369002B17
:10293800DED0FFF799FD3369C01AB0F5FA7FD7D911
:1029480096F83430022BCFD83046FFF7C5FEFFF794
:102958008BFD306196F83420013286F83420C7E7C1
:10296800FFF782FD184B41F6F00202FB04339B6827
:10297800C01AB0F57A7FCFD3134B02FB043393F818
:102988003630022B18D8104B41F6F00202FB043403
:10299800616900230293019310220092E2680139D1
:1029A8003046FFF7EBFE94F83630013384F83630C2
:1029B800FFF75AFDA060AFE72046FFF7C3FDABE77E
:1029C80004B070BD161A0020241A0020181A00201E
:1029D8002DE9F04F87B007460269037902EB030837
:1029E80098F80DB0B8F80E1049BAADF8141032F8CE
:1029F80003A09AFA9AFA1FFA8AF9B8F802305BBA71
:102A0800ADF816309DB2C3681A785C78240444EA9D
:102A180002649A7844EA0224DB781C43D8F804302C
:102A28001E0206F47F0646EA03661A0A02F47F428B
:102A3800164346EA1366D8F808100A0202F47F0221
:102A480042EA01620B0A03F47F43134343EA11632A
:102A58000493002208E0AA4B41F6F00101FB003381
:102A6800DB8DAB4226D00132A64B1B7893422EDD7C
:102A7800A54B985CA24B41F6F00101FB0033DB69E2
:102A8800A342E8D19E4B01FB00339B8D4B45E2D11D
:102A98009B4B01FB0033DB8DAB42DCD1984C01FB37
:102AA8000044BDF8143063851BF0040F13D0FFF702
:102AB80049FD09E0042301930136009600234A46A4
:102AC80029463846FFF772FD07B0BDE8F08F1BF0C6
:102AD800020F0ED10024002CF6D094F83D30013BB3
:102AE800042BF1D8DFE813F050007500E100120163
:102AF8002A01FFF705FDB0F1FF3F0BD11423019325
:102B0800731C009300234A4629463846FFF74EFDBA
:102B18000024E0E741F6F00808FB00F8DFF8E09150
:102B280008EB090585F83500EC61FFF79DFC686046
:102B380008F130034B44BA681168C3F8071092884B
:102B4800A3F80B20A5F82CA0BDF81630EB85EE6095
:102B5800721C6A62BDF814306B854FF4A0532B8544
:102B68004FF0E023996969612962012385F83D30B6
:102B7800002002900190009312232846FFF7FEFDE3
:102B88006B6901336B619FE71BF0100F15D0636908
:102B9800049A934298D1636AB34295D1FFF764FCD3
:102BA8006060049B2362002384F83630236184F834
:102BB80034306386022384F83D301BF0020F83D043
:102BC8000136636A9E427FF47FAF2046FFF784FD9B
:102BD8007AE7FFF749FC6060002384F836306369C0
:102BE800049A9342FFF470AF626AB2427FF46CAF0A
:102BF8001BF0010F3DD11BF0100F3FF465AF236AA6
:102C0800049A934200D2226200236386236184F8E7
:102C1800343098F80C20120991003B8838791B1A37
:102C28009BB2A3EB82039BB2002B3FF44DAF414410
:102C3800228EC2F5A055ADB2AB4200D81D4638323F
:102C4800A0182A46063000F0DDFE238E2B4423868A
:102C5800636AEA186262238EC3F5A053238561690B
:102C6800002302930193009310232046FFF786FD6B
:102C78002AE70132626219460025029501950095FE
:102C880010232046FFF77AFD626A61690295019573
:102C98000123009311232046FFF770FD6369013378
:102CA8006361052384F83D300EE71BF0100F3FF4F5
:102CB8000BAF6369049A93427FF406AFFFF7D4FB26
:102CC8006060002384F836306386236184F83430EA
:102CD8001BF0010F03D1042384F83D30F4E6626A47
:102CE80001326262616902930193009310232046C6
:102CF800FFF744FD94F83500FFF724FCE4E600BF35
:102D0800241A0020161A0020181A00201BF0010FA0
:102D18003FF4DAAE626AB2427FF4D6AE0132626242
:102D28006169002302930193009310232046FFF763
:102D380025FD94F83500FFF705FCC5E61BF0100FDC
:102D48003FF4C2AE6369049A93427FF4BDAE636AEE
:102D5800B3427FF4B9AE94F83500FFF7F3FBB3E65E
:102D680090F83D30022B15D130B585B00446154694
:102D7800038D934211D302920191012300931823EA
:102D8800426A4169FFF7FAFC63692B4463610020DA
:102D980005B030BD4FF0FF3070474FF0FF30F7E718
:102DA80008B5FFF767FB08BDFEE7FEE7FEE7FEE7AD
:102DB800FEE77047704770470120704708B500F07C
:102DC800F5FD162303604FF0FF3008BD08B54FF03E
:102DD800FF31FFF7F3FFFEE7034AD2F8883043F4E8
:102DE8007003C2F88830704700ED00E0224B9B6802
:102DF80003F00C03042B11D0082B13D0002B37D170
:102E08001E4B1F4A1A601C4B9B68C3F303131D4AD1
:102E1800D15C1A4A1368CB4013607047174B1A4AA3
:102E28001A60F0E7144B59685A6802F03F0211F42F
:102E3800800F13D0144BB3FBF2F30F4A5268C2F35E
:102E4800881202FB03F30C4A5268C2F301420132B2
:102E58005200B3FBF2F3094A1360D4E7084BB3FB03
:102E6800F2F3054A5268C2F3881202FB03F3EAE759
:102E7800024B034A1A60C6E700380240D800002017
:102E88000024F400E03A000800127A00DFF834D099
:102E9800FFF7A2FF0C480D490D4A002302E0D45861
:102EA800C4500433C4188C42F9D30A4A0A4C00238C
:102EB80001E013600432A242FBD300F07DFDFEF76F
:102EC80033FC704700000820000000203401002077
:102ED800E83D000840010020D4140120FEE71EB49C
:102EE80000F08FF81EBCFDF75FFF0378472B17D162
:102EF80043784E2B14D18378552B11D1C378432BAB
:102F08000ED10379432B0BD143792B2B08D183792D
:102F18002B2B05D1C07901288CBF002001207047D8
:102F2800002070472DE9F3411F460378C479472BE9
:102F380002460D4612D143784E2B0FD18378552B7C
:102F48000CD1C378432B09D10379462B06D1437999
:102F58004F2B03D18379522B00D1F4B11046FFF7E0
:102F6800C4FF00230193D8B9154C236820469B68F9
:102F7800984700B3019B1B68019302262B6801AA9E
:102F8800D3F81080214601232846C047A8B1019BE9
:102F98003B60304602B0BDE8F0810194094CE4E79B
:102FA80052F8201C012C1ABF0C4602F1580151F8A6
:102FB800784C0191D9E70126E0E70646E9E700BF2A
:102FC8003C3B0008103B000810B5044600F032F8FE
:102FD80002462046A4F12001FFF787FF60B154F8AC
:102FE800043C0133012B44F8043C03D1936844F8B2
:102FF800083C9160012010BD9368002BF9D000F0C7
:103008009BFA10B500F016F8826801460AB900F07C
:1030180093FA02F120042046FFF767FF40B1D36915
:10302800013BD36113B9906988609361204610BD54
:103038008860FBE7004870478413012030B50023FF
:103048001A4610F8015B05F07F04944023432C06D0
:1030580002F10702F5D40B6030BD30B500231A46E3
:1030680010F8014B04F07F0595402B43250602F12B
:103078000702F5D41F2A06D8640642BF4FF0FF3472
:1030880004FA02F213430B6030BD50282DE9F341D6
:103098000646884615461F4608D1D01C20F0030076
:1030A80050F8044B3C6002B0BDE8F08100F00F031B
:1030B8000C2B2ED8DFE803F025071D25292D2D2DF3
:1030C8002D182125290001A92846FFF7B7FF019CE3
:1030D800002CE7D006F07003102B08BFA846444424
:1030E800330648BF2468DDE701A92846FFF7B5FF86
:1030F800EDE7284630F8024BEAE7284630F9024B5C
:10310800E6E7284650F8044BE2E7284650F8084B13
:10311800DEE700F0D3FB08B50346FF2B08460DD0C9
:1031280003F07003302B0FD004D8202B08D005D91A
:1031380000F0C4FB402B0BD0502BF9D1002008BD68
:10314800BDE8084000F0B9BCBDE8084000F0B2BCDA
:10315800BDE80840FEF730B870B50C460146204679
:1031680015461E46FFF7D7FF334601462A46204636
:10317800BDE87040FFF789BF73B50C461546064693
:1031880008B1FEF719F82246286012F8011BFF293A
:103198001CD02B1D3046FFF7DFFF0246104610F803
:1031A800013BFF2B14D010232B7501A9FFF746FF15
:1031B800019B0344EB6010F8013B6B7501A9FFF715
:1031C8003DFF019B03442B6102B070BD6860E5E7D9
:1031D8002B750023EEE71FB503AB009300230A46C7
:1031E8001946FDF7FDF9039805B05DF804FB0000EA
:1031F8002DE9F04F93B00023079300F00303012B50
:1032080006460C46154610D0022B03D0002B73D16E
:10321800300773D529462046FDF7B8FF18B10920B5
:1032280013B0BDE8F08F0820FAE701075BD5022349
:1032380006F008061E430CAB009300230C22194627
:1032480028460C94FDF7F4F9062E59D1D4F83080AD
:10325800D4E90A73B8F1000F00F0558199464FF090
:10326800030A002F18DA0CAA49462846FFF784FFFC
:103278009DF844002946FFF74EFF0F9BFA4303EBE6
:103288008203002253F82210002940F03F81C4E94C
:103298000A200422C4E90C2300230BAE1A4619465F
:1032A800009628460B94FDF7C3F90023194601221E
:1032B800009628460B97FDF7BBF90F212846FFF724
:1032C8008AFF00F0010040EA080000230B900096F6
:1032D8000F2219462846FDF7ABF9BAF1020F00F0A4
:1032E800178107209CE70D211046276AFFF773FF17
:1032F80087429CD106239BE700F0E0FA012397E779
:103308002846FDF75FFF8146002883D00CAA0146B6
:103318002846FFF731FF9DF844B0039029465846E8
:10332800FFF7F9FE0F2102900E902846FFF753FF92
:10333800039A20F0010808F1FF38109F974217D828
:103348000027B8464FF0010AF20740F1CC80BAF1E5
:10335800020F3FF45FAF0D212846079EFFF73BFFA2
:10336800C4E90A79C4E90806C4F83080062057E79A
:103378009DF845A008AB51460020FFF7EDFE09ABCC
:10338800024651460020FFF7E7FE0AAB02465146C7
:103398000020FFF7E1FE0BA9FFF750FE0C9B0899F0
:1033A8000B444345024651D809990B444345C4D9B7
:1033B800DDF82880B8F1000F01D00D9B98440B98D8
:1033C80000283BD001383844B8F1000F3FF422AF51
:1033D80016F0080304933BD0472323704E236370F1
:1033E8005523A3704323E370462323714F2363714E
:1033F8005223A3710023E3710023039309A9FFF764
:103408002CFE0AA90590FFF728FE099F002F67D018
:1034180042DDBBF1FF0F3BD00BF00703042B3FF657
:103428006BAF01A252F823F06B3400080133000897
:103438009D3400086B34000895340008B8F1000F7B
:103448003FF4E8AE00274FF0020A7DE73A4674E7FA
:10345800E379012B0CBF54F8203C04F1580307937F
:10346800CAE704220F990BAB02FB171258460299C0
:10347800FFF70BFE0B9931B13CB307AB0022204696
:10348800FFF750FD08B34FF0030A5DE70822E9E7AC
:103498000022E7E70222E5E70F9B6FF04042D21BCC
:1034A80003EB820ABCB10499A9B9079B0B93AAF153
:1034B800040A5AF8041F0029E5D00BAB0022514436
:1034C8002046FFF72FFD0028F3D00A9820B3059B6C
:1034D8000344184692E753F82230002BF5D1D2E77F
:1034E80001230393F1E7330709D5BAF1010F01D19D
:1034F80000F022F8002FBFF6CFAE00F02FF8BAF197
:10350800010F7FF4AEAE204600F06DF90132B9E646
:103518002046FFF759FDE4E6039B002B92D179E69C
:1035280008B5804700F0CAF9024B1868BFF35B8FF3
:10353800704700BFE000002008B5FFF7F5FFFFF770
:10354800EFFF08B58047FFF7F7FF0000024B186848
:10355800BFF35B8F704700BFDC00002008B5FFF7A2
:10356800F5FFFFF7EEFF0268D207034605D442785D
:1035780002B1FFDE01205870704700207047002319
:1035880043707047012303607047000010B5034B78
:103598000360044600F0B4F8204610BD803B0008E4
:1035A80010B50446FFF7F2FF20460C2100F0FCF8A6
:1035B800204610BD2DE9F041DDF8188090450646FB
:1035C8000F4615461C460BD0B0680368CDF8188026
:1035D8001E6A2A4623463946B446BDE8F04160478C
:1035E800194600F057F80028EED00620BDE8F08113
:1035F8002DE9F14F0D461946DDE90A4BDDE90CA628
:1036080081461746984600F045F890B1002D346081
:10361800377109DB2C44A24514BF01240624B47178
:10362800002001B0BDE8F08F0235F9D10123B37154
:10363800F6E7544506D15946484600F02BF808B13C
:103648007771EDE7D9F808000368CDE90CA6CDE954
:103658000A4BDC693A4643462946A44601B0BDE810
:10366800F04F60472DE9F04107460C4615461E46C7
:1036780000F079F848B9B86803689F692A46334664
:103688002146BC46BDE8F0416047BDE8F08170477F
:1036980000207047814208B50ED0406803782A2B75
:1036A8000CD049680B782A2B08BF0131FCF7C0FD04
:1036B800B0FA80F0400908BD0120FCE70020FAE7D5
:1036C8007FB500241023CDE90234036815469E69AE
:1036D80012686B46CDE90044B0479DF8043003F00A
:1036E8000603062B03BF009B2B600120204604B075
:1036F80070BD009890420CBF062001207047000062
:1037080010B5034B03600446FFF7C1FF204610BD08
:10371800F43B000810B50446FFF7F2FF20460821E5
:1037280000F042F8204610BD2DE9F0411F46DDE9C2
:103738000834DDF8188098450646154607D10799DC
:10374800FFF7A8FF18B165710020BDE8F081394680
:103758003046FFF79FFF0028F6D00123C4F8008009
:103768002571A371F0E738B515461C46FFF792FF9F
:1037780020B10823E36006232560237138BD2DE9B5
:10378800F04105460C4616461F46FFF783FF48B929
:10379800032F07D823683246294620465B69BDE8CF
:1037A800F0411847BDE8F08100F086B80378472B50
:1037B80017D143784E2B14D18378552B11D1C37868
:1037C800432B0ED10379432B0BD143792B2B08D1F3
:1037D80083792B2B05D1C07901288CBF00200120CB
:1037E80070470020704710B5044648B100F03BF818
:1037F8002046FFF7DBFF18B154F8140CFFF790FED2
:10380800FFF79AFE38B50246FFF7D0FF044640B1ED
:1038180052F8184C0025104600F025F81DB1FFF7A6
:103828009DFE0125F7E72046FFF78BFE0378472B1F
:1038380017D143784E2B14D18378552B11D1C378E7
:10384800432B0ED10379432B0BD143792B2B08D172
:1038580083792B2B05D1C07901288CBF002001204A
:1038680070470020704738B50446FFF7E3FB05684A
:1038780002462046A4F12001FFF7D8FF28B90DB170
:10388800FFF75AFE1160284638BD54F80C3C002B4F
:10389800B4BFC3F10103013344F80C3C53688D42B3
:1038A80003F1FF33536020461CBF44F8105C1160DD
:1038B800656AFCF78DFEE6E700F008B808B5062053
:1038C80000F058F80120FFF781FA0000024B01468A
:1038D800186800F0A5B800BFE4000020014800F017
:1038E8008FB800BFD0140120014800F08AB800BF8B
:1038F800D014012010B501390244904201D10020B2
:1039080005E0037811F8014FA34201D0181B10BD40
:103918000130F2E702440346934200D1704703F8AE
:10392800011BF9E71F2938B505460C4604D91623AB
:1039380003604FF0FF3038BDC26B12B152F821302E
:103948004BB9284600F030F8224601462846BDE823
:10395800384000F017B8012B0AD0591C03D11623A0
:1039680003600120E7E7002142F824102046984729
:103978000020E0E7024B01461868FFF7D3BF00BFFD
:10398800E400002038B5074D0023044608461146D8
:103998002B60FFF713FA431C02D12B6803B1236095
:1039A80038BD00BFCC140120FFF706BA014B1868D8
:1039B800704700BFE400002070B50D4D0D4C641B2E
:1039C800A4100026A64209D10B4D0C4C00F078F843
:1039D800641BA4100026A64205D170BD55F8043B0F
:1039E80098470136EEE755F8043B98470136F2E769
:1039F800D83D0008D83D0008D83D0008E43D00083F
:103A0800704770470A44914200F1FF3300D1704774
:103A180010B511F8014B03F8014F9142F9D110BDCF
:103A280038B50546002941D051F8043C0C1F002B3D
:103A3800B8BFE418FFF752FF1D4A136833B9636033
:103A480014602846BDE83840FFF74EBFA34208D9A6
:103A5800206821188B4201BF19685B68091821602A
:103A6800EDE71A465B680BB1A342FAD91168501802
:103A7800A0420BD120680144501883421160E0D164
:103A880018685B68536008441060DAE702D90C23B1
:103A98002B60D6E7206821188B4204BF19685B6841
:103AA800636004BF091821605460CAE738BD00BFCD
:103AB8009013012008B5FFF701FF08B5FFF7FAFFDB
:103AC800F8B500BFF8BC08BC9E467047F8B500BF03
:083AD800F8BC08BC9E467047D3
:103AE00000000000000000000102030406070809AE
:103AF0004E31305F5F637878616269763131355F6E
:103B00005F666F726365645F756E77696E644500AA
:103B1000F43B0008F03A00084E31305F5F6378787C
:103B2000616269763131395F5F666F726569676EB0
:103B30005F657863657074696F6E4500F43B0008DB
:103B4000183B00084E31305F5F63787861626976B8
:103B50003132305F5F73695F636C6173735F747977
:103B600070655F696E666F4500000000803B00086D
:103B7000443B0008E03B0008000000006C3B0008EC
:103B800095350008A93500089936000899360008CF
:103B900087370008C93600086D360008F935000877
:103BA000BD350008537439747970655F696E666F4E
:103BB00000000000F43B0008A43B00084E31305FD9
:103BC0005F637878616269763131375F5F636C611A
:103BD00073735F747970655F696E666F450000008E
:103BE000803B0008BC3B0008B43B0008000000001C
:103BF000E03B0008093700081D3700089936000827
:103C00009936000887370008C93600086F37000862
:083C100031370008FB36000803
:103C1800E1F5FF7FB0B0A800FFFF010D1804000018
:103C280032049A01004262000000000008B10181DC
:103C3800B0B000840000000008B10181B0B0008479
:103C48000000000008B10181B0B00084000000004D
:103C5800E0C5FF7F0100000090C6FF7FB0A9028089
:103C680020C7FF7FB0B0A88070C7FF7F01000000A9
:103C78007CC7FF7FB0B0AA80B0C7FF7FAE75B280A7
:103C880080C8FF7F010000007CC8FF7FAB3F3A80FF
:103C9800DCC8FF7F01000000E4C8FF7FB0B0AA8045
:103CA80020C9FF7F01000000D4C9FF7FAA0FB2809E
:103CB80050CAFF7FB0AF0880ECCCFF7F0100000046
:103CC800F0CCFF7FAC3F0380C4CFFF7F0100000032
:103CD800A0D1FF7F00840480B4D1FF7F01000000E1
:103CE800B0D1FF7FB0AD0480A4D4FF7FB0A803801B
:103CF800C8D4FF7F44FFFF7FCCD4FF7F48FFFF7FFE
:103D0800D8D4FF7F010000004CD9FF7FB0AD0480FC
:103D180014DAFF7F0100000010DAFF7FB0B0A8803E
:103D2800A0DAFF7F01000000C8DBFF7FE4FEFF7F11
:103D38007CDCFF7F01000000C0DCFF7FB0B0AA8000
:103D480008DDFF7FA908B18048DDFF7FB0A80380A8
:103D5800E0DDFF7FB0AA018044DFFF7F01000000A3
:103D680070E2FF7FAB08B1800CE3FF7FC0FEFF7FEE
:103D780028E3FF7FAB08B1803CE4FF7FB0AA07804F
:103D8800F4E4FF7F01000000F4E4FF7FA908B1809C
:103D98008CE6FF7F0100000014E8FF7FB0AF0280CF
:103DA80038E9FF7FAD08B180D4E9FF7FB0AF048068
:103DB8002CEBFF7FB0AA038018ECFF7FB0AF068022
:103DC800A0EFFF7FB0A90480D8EFFF7F01000000BB
:0C3DD8001D0200087D220008A92D000833
:043DE400F9010008D9
:103DE8004C4D414F204C4D414F204C4D414F204CA4
:103DF8004D414F204C4D414F204C4D414F204C4D93
:103E0800414F00000400D80000000000001400101A
:103E18000701010100000000000000000000000090
:103E280008004500000000000000401100000000EC
:103E380000000000000013880000000000000000DF
:103E4800000000000000000000000000080045001D
:103E5800002E0000000040010000000000000000EB
:103E68000000030300000000000000000000000044
:103E780000000000C0A8007B02123456789A0000A7
:103E880000000000000000000000000008004500DD
:103E980000000000000040060000000000000000D4
:103EA800000013880000000000000000000050021D
:103EB80004000000000000000024F4004135000860
:103EC800C5380008E8000020000000009413012015
:103ED800FC13012064140120000000000000000011
:103EE80000000000000000000000000000000000CA
:103EF80000000000000000000000000000000000BA
:103F080000000000000000000000000000000000A9
:043F180000000000A5
:0400000508002E952C
:00000001FF
