:020000040800F2
:10000000000008205D380008773400087F340008BD
:10001000873400088F34000897340008000000007F
:100020000000000000000000000000009F340008F5
:10003000AD34000800000000BB340008352600087D
:10004000AD380008AD380008AD380008AD380008FC
:10005000AD380008AD380008AD380008AD380008EC
:10006000AD380008AD380008AD380008AD380008DC
:10007000AD380008AD380008AD380008AD380008CC
:10008000AD380008AD380008AD380008AD380008BC
:10009000AD380008AD380008AD380008AD380008AC
:1000A000AD380008AD380008AD380008AD3800089C
:1000B0007D0500088D060008AD380008AD38000841
:1000C000AD380008AD380008AD380008AD3800087C
:1000D000AD380008AD380008AD380008AD3800086C
:1000E000AD380008AD380008AD380008AD3800085C
:1000F000AD380008AD380008AD380008AD3800084C
:10010000AD380008AD380008AD380008AD3800083B
:10011000AD380008AD380008AD380008AD3800082B
:10012000AD380008AD380008AD380008AD3800081B
:10013000AD380008F1100008AD380008AD380008EF
:10014000AD380008AD380008AD380008AD380008FB
:10015000AD380008AD380008AD380008AD380008EB
:10016000AD380008AD380008AD380008AD380008DB
:10017000AD380008AD380008AD38000800000000B8
:10018000AD380008AD380008AD380008AD380008BB
:10019000AD380008AD380008AD380008AD380008AB
:1001A000AD380008AD380008AD380008AD3800089B
:1001B000AD380008AD380008AD380008AD3800088B
:1001C000AD380008AD38000800000000AD38000868
:1001D000AD380008AD380008AD380008AD3800086B
:1001E000AD380008AD380008AD380008AD3800085B
:0801F000AD380008AD3800082D
:1001F800A3F5803A704700BF174B002B08BF134B7D
:100208009D46FFF7F5FF00218B460F461348144A19
:10021800121A03F00DFD0E4B002B00D098470D4B22
:10022800002B00D098470020002104000D000D4845
:10023800002802D00C48AFF3008003F0ABFD20008B
:10024800290000F043F903F041FB00BF000008005B
:100258000000000000000000000000006001002015
:10026800F8140120000000000000000038420008D7
:10027800000000206001002060010020F814012027
:100288000348044B834202D0034B03B1184770471D
:100298006001002060010020000000000548064BB6
:1002A8001B1AD90F01EBA301491002D0034B03B16C
:1002B800184770476001002060010020000000001E
:1002C80010B5064C237843B9FFF7DAFF044B13B196
:1002D8000448AFF300800123237010BD60010020A3
:1002E80000000000A441000808B5054B1BB10549F2
:1002F8000548AFF30080BDE80840FFF7CFBF00BF57
:100308000000000064010020A441000880B485B00A
:1003180000AF78607B6803F00703FB600B4BDB687A
:10032800BB60BA684FF6FF031340BB60FB681A0254
:10033800BB681A43064B1343BB60044ABB68D360CF
:1003480000BF1437BD465DF8047B704700ED00E040
:100358000000FA0580B483B000AF0346FB7197F93B
:100368000730002B0BDBFB7903F01F02074997F9D5
:1003780007305B09012000FA02F241F8232000BF90
:100388000C37BD465DF8047B704700BF00E100E014
:1003980080B483B000AF03463960FB7197F907302A
:1003A800002B0ADB3B68DAB20C4997F907301201D7
:1003B800D2B20B4483F800230AE03B68DAB208495A
:1003C800FB7903F00F03043B1201D2B20B441A76F7
:1003D80000BF0C37BD465DF8047B704700E100E0C4
:1003E80000ED00E080B400AFBFF34F8F00BFBFF354
:1003F8006F8F00BF0D4B0022C3F85022BFF34F8F01
:1004080000BFBFF36F8F00BF084B5B69074A43F417
:1004180000335361BFF34F8F00BFBFF36F8F00BF2F
:1004280000BFBD465DF8047B704700BF00ED00E0EB
:1004380080B485B000AF244B0022C3F88420BFF3FA
:100448004F8F00BF204BD3F880307B607B685B0BFD
:10045800C3F30E03FB607B68DB08C3F30903BB60CF
:10046800FB685A0143F6E0731340BA6892071649CD
:100478001343C1F86032BB685A1EBA60002B14BF20
:1004880001230023DBB2002BEAD1FB685A1EFA6075
:10049800002B14BF01230023DBB2002BDBD1BFF3F9
:1004A8004F8F00BF084B5B69074A43F480335361A1
:1004B800BFF34F8F00BFBFF36F8F00BF00BF14376C
:1004C800BD465DF8047B704700ED00E080B582B062
:1004D80000AF01F01DFBFFF785FFFFF7A9FF032021
:1004E800FFF714FF62B600BF02F078F81D4801F06C
:1004F80023FF0346002B14BF01230023DBB2002B8C
:1005080001D000F0BDFB02F07DF800F047FB00F0E1
:1005180003FC00F0A5F900F04FFA02F02BF902F005
:10052800B1F8786000F036FE02F0ACF802467B685D
:10053800D31A41F2883293428CBF01230023DBB2E5
:10054800002BEFD002F09EF87860074B03F560436C
:1005580093F8AD30022BE5D123220449044802F078
:1005680012FFDFE704000020241A002014000020F6
:1005780094FA002080B483B000AF4FF080431B6929
:1005880003F00803002B14BF01230023DBB2002B68
:100598002FD04FF08043DB6B7B60374B1B78002BF1
:1005A8000ED1364A7B681360334B01221A704FF024
:1005B80080431B6A4FF0804243F40073136210E0DB
:1005C8002E4B1B687A68D31A2D4A13602A4B0022D7
:1005D8001A704FF080431B6A4FF0804223F4007377
:1005E80013624FF080431B694FF0804223F00803E9
:1005F80013614FF080431B6903F01003002B14BFF5
:1006080001230023DBB2002B2FD04FF080431B6C5B
:100618007B60194B5B78002B0ED1184A7B685360BE
:10062800154B01225A704FF080431B6A4FF08042ED
:1006380043F40053136210E0104B5B687A68D31AD6
:100648000F4A53600C4B00225A704FF080431B6ACC
:100658004FF0804223F4005313624FF080431B692C
:100668004FF0804223F01003136100BF0C37BD46E2
:100678005DF8047B704700BFAC0100207C010020BE
:100688009401002080B483B000AF714B1B6903F064
:100698000203002B14BF01230023DBB2002B2BD055
:1006A8006B4B5B6BFB806B4B9B78002B0CD1FB88F7
:1006B800694A9360674B01229A70654B1B6A644ACA
:1006C80043F00203136211E0634B9B689BB2FA8804
:1006D800D31A9BB21A46614B9A605E4B00229A70FD
:1006E8005B4B1B6A5A4A23F002031362584B1B697F
:1006F800574A23F002031361554B1B6903F00403A7
:10070800002B14BF01230023DBB2002B2BD0504B4E
:100718009B6BFB804F4BDB78002B0CD1FB884E4A40
:10072800D3604C4B0122DA70494B1B6A484A43F0AC
:100738002003136211E0484BDB689BB2FA88D31A96
:100748009BB21A46454BDA60424B0022DA70404BA6
:100758001B6A3F4A23F0200313623D4B1B693C4A46
:1007680023F0040313613A4B1B6903F00803002BC1
:1007780014BF01230023DBB2002B2BD0344BDB6BDF
:10078800FB80344B1B79002B0CD1FB88324A136158
:10079800304B01221A712E4B1B6A2D4A43F4007309
:1007A800136211E02C4B1B699BB2FA88D31A9BB2D7
:1007B8001A462A4B1A61274B00221A71244B1B6ACE
:1007C800234A23F400731362214B1B69204A23F048
:1007D800080313611E4B1B6903F01003002B14BFA1
:1007E80001230023DBB2002B2BD0194B1B6CFB80A1
:1007F800184B5B79002B0CD1FB88174A5361154BBA
:1008080001225A71124B1B6A114A43F400531362B6
:1008180011E0114B5B699BB2FA88D31A9BB21A4656
:100828000E4B5A610B4B00225A71094B1B6A084A3E
:1008380023F400531362064B1B69054A23F0100387
:10084800136100BF0C37BD465DF8047B704700BFDD
:1008580000040040AC0100207C010020940100202D
:1008680080B582B000AF534B1B6C524A43F0010372
:1008780013644FF080434FF0FF32DA624FF0804349
:100888006B229A624FF0804301225A614FF08043F5
:100898001B694FF0804223F0010313614FF080433E
:1008A8001B6A4FF0804223F4807313624FF0804339
:1008B8001B6A7B604FF08043DB693B607B6823F4F5
:1008C80020637B607B6843F400737B603B6823F0A4
:1008D80003033B603B6843F001033B604FF08042F9
:1008E8003B68D3614FF080427B6813624FF08043CE
:1008F8000822DA604FF080431B6A4FF0804223F4ED
:10090800807313624FF080431B6A4FF0804243F4B8
:10091800807313624FF080431B6A4FF0804223F4C8
:10092800805313624FF080431B6A7B604FF0804313
:10093800DB693B607B6823F420437B607B6843F47E
:1009480000537B603B6823F440733B603B6843F48F
:1009580080733B604FF080423B68D3614FF0804228
:100968007B6813624FF080431022DA604FF08043B7
:100978001B6A4FF0804223F4805313624FF0804388
:100988001B6A4FF0804243F4805313624FF0804358
:100998001B684FF0804243F00103136000211C20C4
:1009A800FFF7F6FC1C20FFF7D5FC00BF0837BD4653
:1009B80080BD00BF0038024080B584B000AF754BE1
:1009C8001B6C744A43F002031364734B4FF0FF32FD
:1009D800DA62714B6B229A626F4B01225A616E4B3D
:1009E8001B696D4A23F0010313616B4B1B6A6A4A4A
:1009F80023F001031362684B1B6AFB60664B9B691B
:100A0800BB60FB6823F00A03FB60FB6843F002034A
:100A1800FB60BB6823F00303BB60BB6843F00103C2
:100A2800BB605D4ABB6893615B4AFB6813625A4BC3
:100A38000222DA60584B1B6A574A23F001031362FB
:100A4800554B1B6A544A43F001031362524B1B6A0D
:100A5800514A23F0100313624F4B1B6AFB604E4B45
:100A68009B69BB60FB6823F0A003FB60FB6843F055
:100A78002003FB60BB6823F44073BB60BB6843F48E
:100A88008073BB60444ABB689361434AFB68136246
:100A9800414B0422DA60404B1B6A3F4A23F01003A3
:100AA80013623D4B1B6A3C4A43F0100313623A4BF6
:100AB8001B6A394A23F480731362374B1B6AFB6045
:100AC800354BDB697B60FB6823F42063FB60FB68C4
:100AD80043F40073FB607B6823F003037B607B684F
:100AE80043F001037B602C4A7B68D3612A4AFB6888
:100AF8001362294B0822DA60274B1B6A264A23F423
:100B080080731362244B1B6A234A43F48073136275
:100B1800214B1B6A204A23F4805313621E4B1B6A25
:100B2800FB601D4BDB697B60FB6823F42043FB60A3
:100B3800FB6843F40053FB607B6823F440737B60DD
:100B48007B6843F480737B60134A7B68D361124AE5
:100B5800FB681362104B1022DA600F4B1B6A0E4AB7
:100B680023F4805313620C4B1B6A0B4A43F48053E3
:100B78001362094B1B68084A43F001031360002104
:100B88001D20FFF705FC1D20FFF7E4FB00BF103711
:100B9800BD4680BD003802400004004080B584B0E6
:100BA80000AF324B1B6B314A43F07F0313633B4664
:100BB80000221A605A609A602D4B3B6002233B71F9
:100BC80000237B710023FB710323BB710B233B7252
:100BD8008623FB60FB683A4607CA00F0DFFE254B18
:100BE8003B600D233A4607CA00F034FE224B3B60B7
:100BF8003223FB60FB683A4607CA00F0CFFE1F4B62
:100C08003B604FF42053FB60FB683A4607CA00F08C
:100C1800C5FE184B3B600123FB7101233B720A237D
:100C28003A4607CA00F016FE114B3B6003233A46CA
:100C380007CA00F00FFE02233B7206233A4607CA92
:100C480000F008FE0C4B3B6007233A4607CA00F049
:100C580001FE0323FB60074B3B60FB683A4607CA6B
:100C680000F09CFE00BF1037BD4680BD0038024032
:100C78000000024000040240000802400018024040
:100C880080B400AF00BFFDE780B483B000AF034677
:100C9800FB7197F90730002B0BDBFB7903F01F0280
:100CA800074997F907305B09012000FA02F241F879
:100CB800232000BF0C37BD465DF8047B704700BF9A
:100CC80000E100E080B483B000AF03463960FB71F7
:100CD80097F90730002B0ADB3B68DAB20C4997F921
:100CE80007301201D2B20B4483F800230AE03B68B4
:100CF800DAB20849FB7903F00F03043B1201D2B2C0
:100D08000B441A7600BF0C37BD465DF8047B70476C
:100D180000E100E000ED00E080B584B000AF8D4B4D
:100D28005B6C8C4A43F4804353648A4B5B6C8A4BFC
:100D38005B68894A43F400035360874B5B68874BC1
:100D480003F580531B68854A43F0010302F580527E
:100D5800136001F097FCF8600CE001F093FC024688
:100D6800FB68D31A0A2B8CBF01230023DBB2002BAC
:100D780040F0EB80794B03F580531B6803F00103C7
:100D8800002B14BF01230023DBB2002BE5D1744BE9
:100D9800BB60724ABB681360704B1B68BB60012064
:100DA80001F052FC6D4ABB6813608023BB606B4A3C
:100DB800BB689361694B9B69BB60012001F044FCEF
:100DC800664ABB689361674BBB60644ABB6802F5BF
:100DD80080529361614B03F580539B69BB6001208E
:100DE80001F032FC5D4ABB6802F580529361022330
:100DF8003B7012237B703423BB705623FB7078231F
:100E08003B719A237B717B791B023A791A43534BC6
:100E18001A64FB781A06BB781B041A437B781B02FA
:100E280013433A781A434D4B5A644F4BBB604B4AB5
:100E3800BB6802F580521360484B03F580531B686A
:100E4800BB60012001F000FC444ABB6802F58052F7
:100E5800136000F08FF800F0E9F8404BDB6B3F4A75
:100E680043F40273D3633D4BD3F80C213B493F4B0A
:100E78001343C1F80C31394BD3F81031374A43F4D6
:100E88000313C2F81031354B03F58053DA6933493F
:100E9800374B134301F58052D361304B03F5805330
:100EA800DB69BB6000F042FA2C4B1B682B4A43F00D
:100EB80008031360294B1B68BB60012001F0C4FBC9
:100EC800264ABB681360254B1B68244A43F0040379
:100ED8001360224B1B68BB60012001F0B5FB1F4A61
:100EE800BB6813601D4B03F580539B691B4A43F491
:100EF800801302F580529361012001F0A5FB174B86
:100F080003F580539B69154A23F4801302F5805238
:100F18009361124B03F580539B69104A43F40053C5
:100F280002F5805293610D4B03F580539B690B4A80
:100F380043F0020302F5805293613D20FFF7A4FEBF
:100F480000213D20FFF7BEFE00E000BF1037BD4680
:100F580080BD00BF003802400038014000800240D8
:100F68000C4E0002400020028220C10260000200F4
:100F78004100010080B483B000AF00237B6035E0FE
:100F8800264A7B685B0113444FF000421A60234AEB
:100F98007B685B01134404334FF48C421A607A680F
:100FA80013465B0013445B021D4A134419461B4A4F
:100FB8007B685B011344083319607B68013303F0D5
:100FC80007035B01154A13441946144A7B685B0101
:100FD80013440C3319607B685B01104A1A441149A9
:100FE8007B6841F823207B6801337B607B68072B93
:100FF800C6D90C4B00225A620A4B084A1A62094B9E
:10100800074A9A62084A054B02F58052D36000BF2E
:101018000C37BD465DF8047B704700BF00C0072051
:1010280000800720C01900200080024080B483B0EF
:1010380000AF00237B6034E0274A7B685B011344E0
:101048004FF480121A60244A7B685B01134404330E
:1010580000221A607A6813465B0013445B021F4A39
:10106800134419461C4A7B685B0113440833196012
:101078007B68013303F003035B01174A13441946E5
:10108800154A7B685B0113440C3319607B685B016C
:10109800114A1A4412497B6841F823207B680133BE
:1010A8007B607B68032BC7D90D4B00221A760C4B4B
:1010B80000225A760A4B084A1A61094B074ADA6134
:1010C800084A054B02F58052136100BF0C37BD4634
:1010D8005DF8047B704700BF00C10720C0010020F5
:1010E800F01900200080024080B483B000AF244B88
:1010F80003F580535B697B60214B03F58053DB6903
:101108003B607B6803F04003002B0DD03B6803F085
:101118004003002B08D01A4B03F580531A46194B8D
:101128005361194B01221A607B6803F00103002BFD
:101138001FD03B6803F00103002B1AD0104B03F5B6
:1011480080531A464FF001135361104B5B7E0133F5
:10115800DBB203F00303DAB20C4B5A760B4B5B7E1F
:101168001A460A4B53F82230084A1361084B0122E9
:101178001A6000BF0C37BD465DF8047B704700BF9E
:101188000080024040000100101A0020F0190020E1
:10119800141A002080B582B000AF3D4B1B68BFF326
:1011A8005B8F03F00103002B0CBF01230023DBB28C
:1011B800002B12D0364802F076FB0346002B14BFF2
:1011C80001230023DBB2002B07D001F05BFA0346B2
:1011D800304A13602E4802F075FB01F053FA0246BC
:1011E8002C4B1B68D31A632B8CBF01230023DBB263
:1011F800002B06D001F03EFD01F044FA0346254AD3
:101208001360254B00221A60244B5B6A7B60244ADA
:101218007B685B0113441B683B603B68002B2FDB3A
:101228003B6803F44073B3F5407F19D13B681B0C4E
:101238009BB2C3F30D03194AD362194A7B685B0159
:10124800134408331B681A46144B9A627B685B0187
:10125800134A1344114A13621249104800F0CCFC97
:101268000F4A7B685B0113444FF000421A60BFF3DA
:101278004F8F00BF7B68013303F007037B60C6E72D
:1012880000BF064A7B68536200BF0837BD4680BD71
:101298001C1A0020181A0020101A0020C01900205B
:1012A80000C00720F019002080B483B000AF786038
:1012B8001A4B1B7E1A46194B53F822307A68C2F330
:1012C8000C025A60154B1B7E1A46144B53F82230F9
:1012D800134A1A60BFF35F8F00BF124B03F58053A8
:1012E8001A46002353600D4B1B7E0133DBB203F01B
:1012F8000303DAB2094B1A76084B1B7E1A461346CB
:101308005B0013445B02084A1344044AD36100BFDC
:101318000C37BD465DF8047B704700BFF01900200C
:10132800000010F000800240C001002080B584B0A9
:1013380000AF0023BB6000237B6000233B600023D9
:10134800FB604FF400420021002000F0F9F801F0A2
:1013580099F9F86014E001F095F90246FB68D31A90
:1013680041F2883293428CBF01230023DBB2002B69
:101378004CD107F108031A460021002000F094F828
:10138800BB6803F40043002BE5D14FF480520021E1
:10139800002000F0D5F801F075F9F86013E001F0CD
:1013A80071F90246FB68D31A4CF2503293428CBF53
:1013B80001230023DBB2002B2AD13B1D1A46012151
:1013C800002000F071F87B6803F02003002BE6D0C2
:1013D80001F058F9F86013E001F054F90246FB688F
:1013E800D31A41F2883293428CBF01230023DBB227
:1013F800002B0FD13B461A460121002000F054F87B
:101408003B6803F00403002BE6D004E000BF02E0D1
:1014180000BF00E000BF1037BD4680BD80B483B078
:1014280000AF1B4B1B697B607B6823F01C037B6050
:10143800184B1B683B603B68174A934204D87B688B
:1014480043F008037B6019E03B68144A934204D2D6
:101458007B6843F00C037B6010E03B68104A9342C2
:101468000CD93B680F4A934204D87B6843F00403C5
:101478007B6003E07B6843F010037B60044A7B6871
:10148800136100BF0C37BD465DF8047B704700BF91
:101498000080024000010020BF0E1602008793035F
:1014A800FFE0F5057FD1F00880B586B000AFF860A1
:1014B800B9607A60214B1B6903F01C037B61FB68F0
:1014C800DB029AB27B6913437B61BB689B0103F41F
:1014D800F8627B6913437B617B6923F002037B61BC
:1014E8007B6943F001037B61144A7B69136101F056
:1014F800C9F803463B6110E0104B1B697B6101F0A2
:10150800C1F802463B69D31A41F2883293428CBF34
:1015180001230023DBB2002B0BD17B6903F001030D
:10152800002BE9D1054B5B699BB21A467B681A60B0
:1015380000E000BF1837BD4680BD00BF00800240F4
:1015480080B586B000AFF860B9607A60204B1B693F
:1015580003F01C037B61FB68DB029AB27B691343CF
:101568007B61BB689B0103F4F8627B6913437B6171
:101578007B6943F002037B617B6943F001037B6174
:101588007B689AB2124B5A61114A7B69136101F068
:1015980079F803463B6110E00D4B1B697B6101F054
:1015A80071F802463B69D31A41F2883293428CBFE4
:1015B80001230023DBB2002B05D17B6903F0010373
:1015C800002BE9D100E000BF1837BD4680BD00BF41
:1015D8000080024080B485B000AF78600B467B8005
:1015E8000023FB6010E07B681B781B027A680132DD
:1015F800127813431A46FB681344FB607B68023376
:101608007B607B88023B7B807B88012BEBD87B88C7
:10161800002B0CD07B681B781B02FA681344FB6014
:1016280005E0FB689AB2FB681B0C1344FB60FB687F
:101638001B0C002BF5D1FB689BB2DB439BB2184611
:101648001437BD465DF8047B704780B489B000AF9D
:10165800F860B9607A603B600023FB613B8D08331A
:101668003B82FB681B781B02FA680132127813432D
:101678001A46FB691344FB61FB6802331B781B02A3
:10168800FA680332127813431A46FB691344FB6164
:10169800BB681B781B02BA680132127813431A46DA
:1016A800FB691344FB61BB6802331B781B02BA68F1
:1016B8000332127813431A46FB691344FB61FB6932
:1016C8001133FB613B8AFA691344FB610023BB6158
:1016D80011E0BB697A6813441B781B02BA690132AE
:1016E80079680A44127813431A46FB691344FB616C
:1016F800BB690233BB61BB69072BEADD00237B6151
:101708001AE07B693A6813441B781B027B827B6969
:101718005A1C3B8D9A4208DA7B6901333A681344B4
:101728001B781A467B8A13437B827B8AFA691344A7
:10173800FB617B6902337B613B8D7A699A42E0DB0E
:1017480005E0FB699AB2FB691B0C1344FB61FB695A
:101758001B0C002BF5D1FB699BB2DB439BB21846EF
:101768002437BD465DF8047B704780B489B000AF6C
:10177800F860B9607A607B800023FB61FB681B78A6
:101788001B02FA680132127813431A46FB691344A4
:10179800FB61FB6802331B781B02FA68033212787C
:1017A80013431A46FB691344FB61BB681B781B0291
:1017B800BA680132127813431A46FB691344FB6175
:1017C800BB6802331B781B02BA68033212781343D2
:1017D8001A46FB691344FB61FB690633FB617B888E
:1017E800FA691344FB610023BB611AE0BB697A689C
:1017F80013441B781B02FB82BB695A1C7B889A42E4
:1018080008DABB6901337A6813441B781A46FB8AE5
:101818001343FB82FB8AFA691344FB61BB690233F9
:10182800BB617B88BA699A42E0DB05E0FB699AB242
:10183800FB691B0C1344FB61FB691B0C002BF5D1E6
:10184800FB699BB2DB439BB218462437BD465DF863
:10185800047B704790B486B000AF3C1D84E8070055
:10186800FB70FB785B007B6100233B617B681B6836
:101878003B6103227B6902FA03F3DB433A691340B5
:101888003B613B7A1A467B6902FA03F33A691343D0
:101898003B617B683A691A607B685B683B61FB78EF
:1018A800012202FA03F3DB433A6913403B617B7A76
:1018B8001A46FB7802FA03F33A6913433B617B68E3
:1018C8003A695A607B689B683B6103227B6902FA2C
:1018D80003F3DB433A6913403B61BB7A1A467B69E1
:1018E80002FA03F33A6913433B617B683A699A60E9
:1018F8007B68DB683B6103227B6902FA03F3DB4305
:101908003A6913403B61FB7A1A467B6902FA03F392
:101918003A6913433B617B683A69DA603B7A022B88
:1019280037D1FB78072B19D87B681B6A3B61FB789A
:101938009B000F2202FA03F3DB433A6913403B6131
:101948003B7B03F00F02FB789B0002FA03F33A6932
:1019580013433B617B683A691A621AE07B685B6AE9
:101968003B61FB78083B9B000F2202FA03F3DB4341
:101978003A6913403B613B7B03F00F02FB78083B5D
:101988009B0002FA03F33A6913433B617B683A69A7
:101998005A6200BF1837BD4690BC704790B488B0F3
:1019A80000AF3C1D84E807003B600023BB610023B7
:1019B8007B610023FB61A0E00122FB699A403B6840
:1019C8001340002B00F09680FB695B00BB617B68CD
:1019D8001B687B610322BB6902FA03F3DB437A6964
:1019E80013407B613B7A1A46BB6902FA03F37A69B2
:1019F80013437B617B687A691A607B685B687B61EB
:101A08000122FB6902FA03F3DB437A6913407B6125
:101A18007B7A1A46FB6902FA03F37A6913437B61FE
:101A28007B687A695A607B689B687B610322BB6923
:101A380002FA03F3DB437A6913407B61BB7A1A46E7
:101A4800BB6902FA03F37A6913437B617B687A699D
:101A58009A607B68DB687B610322BB6902FA03F347
:101A6800DB437A6913407B61FB7A1A46BB6902FA49
:101A780003F37A6913437B617B687A69DA603B7A9E
:101A8800022B37D1FB69072B19DC7B681B6A7B614A
:101A9800FB699B000F2202FA03F3DB437A691340C8
:101AA8007B613B7B03F00F02FB699B0002FA03F3A7
:101AB8007A6913437B617B687A691A621AE07B68EA
:101AC8005B6A7B61FB69083B9B000F2202FA03F308
:101AD800DB437A6913407B613B7B03F00F02FB69B0
:101AE800083B9B0002FA03F37A6913437B617B6826
:101AF8007A695A62FB690133FB61FB690F2B7FF737
:101B08005BAF00BF00BF2037BD4690BC70470000E8
:101B180080B500AF00F03EF8184B00229A60174BD2
:101B28001B69164A23F001031361144B0022DA6083
:101B3800124B134A1A61114B01229A600F4B1B6911
:101B48000E4A23F0010313610C4B0E4ADA600B4B6B
:101B58000D4A1A61094B02229A60084B1B69074A11
:101B680023F001031361054B084ADA60034B084A66
:101B78001A6100F027F800BF80BD00BF90ED00E0BB
:101B88003F870410008007201B00081300C00720AF
:101B98001300051380B400AFBFF35F8F00BF074B7E
:101BA8005B6A064A23F480335362054B00225A606D
:101BB80000BFBD465DF8047B704700BF00ED00E044
:101BC80090ED00E080B400AF094B05225A60094B44
:101BD8005B6A084A43F480335362BFF34F8F00BFF8
:101BE800BFF36F8F00BF00BFBD465DF8047B704731
:101BF80090ED00E000ED00E080B58CB000AF7860BB
:101C080039607B68DB6A0D2B40F292807B689B6AA7
:101C18000C331B781BB21B021AB27B689B6A0D330C
:101C28001B781BB213431BB2FB85FB8D40F60602E3
:101C3800934217D17B689B6A7B623B681C333B628B
:101C48007B689B6A16337B617B689B6A1C33BB612C
:101C58007B68DB6A9BB2FB8107F10C03184600F036
:101C68004BFA6AE07B68DB6A212B63D97B689B6A45
:101C78001E3304223249184601F0CAFF0346002BDE
:101C88005AD17B681B6A1B69BB62BB6A03F04003BD
:101C9800002B52D0BB6A03F01003002B4DD17B6898
:101CA8009B6A7B623B681C333B627B689B6A0E3392
:101CB800FB61FB691B7803F00F03DBB29B00DBB20F
:101CC8003B74FB6902331B781BB21B021AB2FB6917
:101CD80003331B781BB213431BB29BB2BB817B68D7
:101CE8009B6A1A33BB617B689B6A06337B61BB6A5C
:101CF80003F00303032B05D107F10C03184600F08A
:101D080065F91AE0BB6A03F00103002B05D007F15F
:101D18000C03184600F016F80FE0BB6A03F0020344
:101D2800002B0AD007F10C03184601F05DF804E017
:101D380000BF02E000BF00E000BF3037BD4680BDF5
:101D48006000002080B584B000AF78607B681A69B5
:101D58007B681B79023313441B781BB21B021AB22F
:101D68007B6819697B681B7903330B441B781BB2AA
:101D780013431BB2FB81FB8941F28832934203D0A3
:101D8800786800F005F800BF1037BD4680BD000038
:101D9800F0B587B000AF78607B685B691B687B61D2
:101DA8007B69394A14469C4604F1300E654626463E
:101DB8000FCE28606960AA60EB6010340CF1100C3B
:101DC8007445F3D1624623461B8813807B689B6861
:101DD80006221946786902F00DF87B691E337A6885
:101DE800D26812681A607B681B7908337B827B692A
:101DF80003F12A007B681B697A8A194601F0FAFF09
:101E08007B8A1C333B823B8A1B0A9AB27B6910335C
:101E1800D2B21A707B6911333A8AD2B21A707B69CE
:101E28000E3314211846FFF7D5FB0346FB81FB89C7
:101E38001B0A9AB27B691833D2B21A707B691933BC
:101E4800FA89D2B21A707B6903F122027B8A0833BD
:101E58009BB219461046FFF7BDFB0346BB81BB8901
:101E68001B0A9AB27B692433D2B21A707B69253374
:101E7800BA89D2B21A703B8A0E331846FFF714FAA1
:101E880000BF1C37BD46F0BD6400002084B0F0B52B
:101E980087B002AF07F1280484E80F00484BDB69DC
:101EA800FB603B8F08337B81FB68464A14469C469F
:101EB80004F1200E654626460FCE28606960AA60A8
:101EC800EB6010340CF1100C7445F3D162462346D4
:101ED80003CB106051601B881381BB6A0622194628
:101EE800F86801F087FFFB681E33FA6A12681A6007
:101EF800FB680E337B607B8914331A0A7B680233D4
:101F0800D2B21A707B89DAB27B6803331432D2B248
:101F18001A7014217868FFF75DFB03467B807B8885
:101F28001B0A9AB27B680A33D2B21A707B680B33E9
:101F38007A88D2B21A70FB6822337B607B8E1B0AC8
:101F48009BB2DAB27B681A707A8E7B680133D2B2A0
:101F58001A703B8E1B0A9AB27B680233D2B21A708F
:101F68003A8E7B680333D2B21A707B891B0A9AB205
:101F78007B680433D2B21A707B6805337A89D2B28F
:101F88001A707B680833796B3A8F184601F032FF74
:101F9800F96A7B6803F108027B89009313467A6823
:101FA8000948FFF752FB3B8F2A331846FFF77CF9A5
:101FB80000BF1437BD46BDE8F04004B0704700BF0D
:101FC800F0190020980000206000002080B588B03B
:101FD80000AF78607B681B697A6812791344FB61EB
:101FE800FB691B78082B7ED17B685B691B68BB612A
:101FF800BB6903F10E007B6819697B681B881A4668
:1020080001F0F8FE7B68083306221946B86901F02A
:10201800F1FEBB690633364A1068186092889A80C8
:10202800BB690C3308221A70BB690D3300221A7081
:10203800BB691A332F4A12681A60BB691E337A6863
:10204800D26812681A60BB690E337B617B690A33F8
:1020580000221A707B690B3300221A707B681B7987
:1020680019467869FFF7B6FA03467B827B8A1B0A12
:102078009AB27B690A33D2B21A707B690B337A8AB7
:10208800D2B21A707B681B791A467B691344FB61CC
:10209800FB6900221A70FB69023300221A70FB697F
:1020A800033300221A707B681B887A6812799B1A9E
:1020B8003B823B8A1946F869FFF78CFA0346FB8195
:1020C800FB891B0A9AB2FB690233D2B21A70FB6908
:1020D8000333FA89D2B21A707B681B880E3318460C
:1020E800FFF7E2F800E000BF2037BD4680BD00BF23
:1020F800580000206000002080B584B000AF7860F0
:102108007B685B88292B58D97B689B6915331B78BA
:10211800012B54D17B689B69263304222B4918462E
:1021280001F076FD0346002B4BD17B685B691B6889
:10213800FB60FB6803F10C007B689B6903F10C01F1
:102148007B685B880C3B1A4601F054FE7B689B68F1
:1021580006221946F86801F04DFEFB6806331C4A52
:102168001068186092889A80FB68143300221A70ED
:10217800FB68153302221A70FB681633144A10687C
:10218800186092889A80FB681C33104A12681A609B
:10219800FB6803F120007B689B680622194601F062
:1021A80029FEFB6826337A68D26812681A607B6851
:1021B8005B881846FFF778F804E000BF02E000BF2C
:1021C80000E000BF1037BD4680BD00BF60000020A2
:1021D8005800002080B400AF2A4B1A782A4B9A7115
:1021E800284B5A78284BDA71264B9A78264B1A7264
:1021F800244BDA78244B5A72224B1A79224B9A7262
:10220800204B5A79204BDA72204B1A781E4B9A765B
:102218001E4B5A781C4BDA761C4B9A781A4B1A7755
:102228001A4BDA78184B5A77164B1A78184B9A715A
:10223800144B5A78164BDA71124B9A78144B1A725F
:10224800104BDA78124B5A720E4B1A79104B9A725D
:102258000C4B5A790E4BDA720C4B1A780C4B9A7657
:102268000A4B5A780A4BDA76084B9A78084B1A7751
:10227800064BDA78064B5A7700BFBD465DF8047BFB
:10228800704700BF58000020640000206000002054
:102298009800002080B500AFFFF79CFF80BD0000CC
:1022A80080B483B000AF03463960FB7197F90730FB
:1022B800002B0ADB3B68DAB20C4997F907301201A8
:1022C800D2B20B4483F800230AE03B68DAB208492B
:1022D800FB7903F00F03043B1201D2B20B441A76C8
:1022E80000BF0C37BD465DF8047B704700E100E095
:1022F80000ED00E080B582B000AF78607B68013BFC
:10230800B3F1807F01D301230FE00A4A7B68013BC8
:1023180053600F214FF0FF30FFF7C2FF054B00223B
:102328009A60044B07221A60002318460837BD46F6
:1023380080BD00BF10E000E080B58AB000AF7860D3
:102348007B681B79FB757B68DB88BB827B681B8994
:102358007B827B685B893B827B681B7BFB737B682A
:102368001B78012B03D97B681B783F2B0AD97B6824
:102378005B88312B04D97B685B88B3F5D87F01D99A
:102388000323F2E07B4B1B68BB607A4ABB6813608F
:10239800784B1B68BB607B685B7B002B2CD07B6811
:1023A8009B7B002B05D0744B1B68734A43F4802336
:1023B8001360714B1B68704A43F480331360002329
:1023C8007B620EE07B6AB3F5805F07D96A4B1B68B6
:1023D800694A23F4803313600123C6E07B6A013322
:1023E8007B62654B1B6803F40033002B0CBF012391
:1023F8000023DBB2002BE5D17B681B781A467B688B
:102408005B889B011A43FB7D1B04134319467B68B9
:102418005B7B002B02D04FF4800300E00023564A78
:102428000B435360544B1B68534A43F0807313604B
:1024380000233B6218E03B6AB3F5805F11D94E4B2D
:102448001B684D4A23F0807313607B685B7B002B0D
:1024580005D0494B1B68484A23F480331360022394
:1024680083E03B6A01333B62434B1B6803F0007314
:10247800002B0CBF01230023DBB2002BDBD13D4B2B
:102488001B683C4A43F4803313600023FB6108E077
:10249800FB69B3F5805F01D9022366E0FB6901336C
:1024A800FB61344B5B6803F48033002B0CBF0123C2
:1024B8000023DBB2002BEBD12E4B1B682D4A43F4D3
:1024C800003313600023BB6108E0BB692B4A9342C9
:1024D80001D9022349E0BB690133BB61254B5B6825
:1024E80003F40033002B0CBF01230023DBB2002BC5
:1024F800EBD1234AFB7B13601F4B9B68B98A7A8A0E
:102508000A4391B23A8A0A4392B211461A4A0B43D5
:102518009360194B9B68184A43F00203936000BF0D
:10252800154B9B6803F00C03082B14BF01230023F1
:10253800DBB2002BF4D101F017F97B68DB7B002BB1
:1025480008D0104B1B68104AA2FB03239B091846AE
:10255800FFF7D0FE7B685B7B002B05D0064B1B6822
:10256800054A23F001031360002318462837BD46A7
:1025780080BD00BF0070004000380240400D0300DD
:10258800003C024000010020D34D621080B485B0A9
:1025980000AF7860084611461A460346FB700B46A2
:1025A8003B801346BB70FB78002B02D0BB78002B16
:1025B80001D100230BE0FB787A68B2FBF3F33A8889
:1025C80002FB03F3FB60BB78FA68B2FBF3F318462F
:1025D8001437BD465DF8047B7047000080B483B0B3
:1025E80000AF074B1B6C064A43F080531364044B3F
:1025F8001B6C7B6000BF0C37BD465DF8047B7047E1
:102608000038024080B483B000AF074B1B6B064A0A
:1026180043F060631363044B1B6C7B6000BF0C3793
:10262800BD465DF8047B70470038024080B400AFB7
:10263800044B1B680133034A136000BFBD465DF8B5
:10264800047B7047201A002080B485B000AF786002
:102658000B4B1B68FB6000BF094B1A68FB68D31A59
:102668007A689A428CBF01230023DBB2002BF3D196
:1026780000BF00BF1437BD465DF8047B704700BF3C
:10268800201A002080B400AF034B1B681846BD46D3
:102698005DF8047B704700BF201A002080B483B027
:1026A80000AF0346FB80B7F906301B021AB2FB885D
:1026B8001B0A9BB21BB213431BB29BB218460C37C2
:1026C800BD465DF8047B704780B483B000AF786086
:1026D8007B681A067B681B0203F47F031A437B6836
:1026E8001B0A03F47F431A437B681B0E13431846E7
:1026F8000C37BD465DF8047B704780B483B000AFEB
:1027080078607B681B781A067B6801331B781B048A
:102718001A437B6802331B781B0213437A6803321F
:102728001278134318460C37BD465DF8047B704792
:1027380080B483B000AF786039603B681B0EDAB2B2
:102748007B681A703B681A0C7B680133D2B21A7026
:102758003B681A0A7B680233D2B21A707B6803336B
:102768003A68D2B21A7000BF0C37BD465DF8047BD8
:102778007047000080B582B000AF4FF660120021AC
:10278800114801F055FA114B00221A70104B002223
:102798001A70104B104A1A600023FB710CE0F9798B
:1027A8000A4B1B785A1CD0B2084A10701A460B4BB9
:1027B8009954FB790133FB71FB79092BEFD900BFE1
:1027C80000BF0837BD4680BD241A00209A13012097
:1027D8008E1301209C1301200C1A00209013012055
:1027E80080B483B000AF144B1B78002B1BD0134B65
:1027F8001B78092B17D8104B1B78013BDAB20E4B0C
:102808001A700D4B1B781A460D4B9B5CFB71F979BE
:102818000A4B1B785A1CD0B2084A10701A46094B4A
:102828009954FB7901E04FF0FF3318460C37BD4649
:102838005DF8047B704700BF9A1301208E130120B6
:10284800901301208413012080B584B000AF0346A3
:10285800FB710023FB603EE0244AFB6813441B78AD
:10286800FA799A4234D1224B1B78013BFA689A4292
:1028780010D01F4B1B78013BDAB21D4B1A701C4B52
:102888001B781A46194B995C184AFB6813440A4688
:102898001A7005E0164B1B78013BDAB2144B1A701C
:1028A800FB7941F6F00202FB03F3124A134441F6A6
:1028B800F0020021184601F0BBF9F9790E4B1B789C
:1028C8005A1CD0B20C4A10701A460C4B995409E0A5
:1028D800FB680133FB60064B1B781A46FB68934282
:1028E800BADB00BF00BF1037BD4680BD841301208E
:1028F8008E130120241A00209A130120901301201E
:10290800F0B589B000AFF8607B600B467B81134659
:102918003B81414B1B681B68FB613F4B1B681B6875
:102928000E33BB613C4B1B681B6822337B61FB6920
:102938003A4A14469C4604F1300E654626460FCEA8
:1029480028606960AA60EB6010340CF1100C7445C3
:10295800F3D1634622461068186092889A80F86915
:10296800FB689B680622194601F044FA2820FFF705
:1029780095FE03461A46BB695A80FB68DB68184611
:10298800FFF7BBFE03461846FFF79EFE0246BB69EB
:102998001A611421B869FEF71DFE03461846FFF7B1
:1029A8007DFE03461A46BB695A817B891846FFF7A4
:1029B80075FE03461A467B691A803B891846FFF75D
:1029C8006DFE03461A467B695A807868FFF77CFEDD
:1029D80002467B695A60B86BFFF776FE02467B6950
:1029E8009A607B6997F83C205A73FB68D96814236E
:1029F8007A690B48FEF7B9FE03461846FFF74EFE04
:102A080003461A467B691A823620FEF74DFC00BF42
:102A18002437BD46F0BD00BF9C130120C400002030
:102A28006000002080B586B000AF7860264B1B6838
:102A38001B687B61244B1B681B680E333B61224B70
:102A48001B681B682233FB6022222049786901F049
:102A5800D1F978697B6837330622194601F0CAF93B
:102A68007B685B8E14339BB21846FFF717FE03464C
:102A78001A463B695A807B68DB691846FFF724FED3
:102A880002463B691A6114213869FEF7A3FD034623
:102A98001846FFF703FE03461A463B695A817A68CF
:102AA80041F23E4313447A68528E1946F86801F0A1
:102AB800A1F97B685B8E22331846FEF7F5FB00BF51
:102AC8001837BD4680BD00BF9C130120C4000020FC
:102AD800F0B589B000AFF860B9607A60FB70624BFE
:102AE8001B681B68FB61604B1B681B680E33BB616E
:102AF8005D4B1B681B6822337B61FB695B4A14468C
:102B08009C4604F1300E654626460FCE2860696063
:102B1800AA60EB6010340CF1100C7445F3D16346D5
:102B280022461068186092889A80F869FB683733E3
:102B38000622194601F05EF9B7F8403028339BB2F7
:102B48001846FFF7ABFD03461A46BB695A80FB6877
:102B5800DB691846FFF7B8FD0246BB691A61142104
:102B6800B869FEF737FD03461846FFF797FD034699
:102B78001A46BB695A81FB68DB8D1846FFF78EFD44
:102B880003461A467B691A80FB689B8D1846FFF737
:102B980085FD03461A467B695A80B868FFF794FD9D
:102BA80002467B695A607868FFF78EFD02467B69AA
:102BB8009A60FB681B8D1846FFF770FD03461A469E
:102BC8007B69DA817B69FA785A73B7F84030002B51
:102BD80007D07B691433B7F84020F96B184601F029
:102BE80009F9FB68DA6907F1100311461846FFF77F
:102BF8009FFDB7F8403014339BB207F110017A6992
:102C08001B48FEF7B2FD03461846FFF747FD03468B
:102C18001A467B691A8297F83830012B19D1FA685D
:102C280041F23E431344B7F84020143279691846FC
:102C380001F0E0F8B7F8403014339AB2FB685A86CE
:102C4800FFF720FD0246FB681A61FB68002283F843
:102C58003420B7F8403036331846FEF725FB00BF5E
:102C68002437BD46F0BD00BF9C130120C4000020DE
:102C78006000002080B588B004AF584B1B78013B3A
:102C8800FB60A2E0564AFB6813441B78FB72FB7A90
:102C980041F6F00202FB03F3524A13447B607B685F
:102CA8001B69002B0BD0FFF7EDFC02467B681B6904
:102CB800D31A40F6C412934201D9012300E000233D
:102CC800002B28D07B6893F83430022B10D8786812
:102CD800FFF7A8FEFFF7D6FC02467B681A617B68FF
:102CE80093F834300133DAB27B6883F8342012E089
:102CF8007B6859697B685A6A002302930023019311
:102D08000023009304237868FFF7E2FEFB7A184655
:102D1800FFF79AFD56E0FFF7B5FC02467B685B6853
:102D2800D31A44F62062934206D97B6893F83D3063
:102D3800022B01D1012300E00023002B42D0FFF732
:102D4800A1FC02467B689B68D31A40F2E7329342A3
:102D58008CBF01230023DBB2002B33D07B6893F8B0
:102D68003630022B12D97B6859697B685A6A00236E
:102D78000293002301930023009304237868FFF74C
:102D8800A7FEFB7A1846FFF75FFD1BE07B685B69CF
:102D9800591E7B68DA6800230293002301931023ED
:102DA800009300237868FFF793FE7B6893F836302A
:102DB8000133DAB27B6883F83620FFF763FC0246FA
:102DC8007B689A60FB68013BFB60FB68002BBFF6E1
:102DD80059AF00BF00BF1037BD4680BD8E1301201C
:102DE80084130120241A002080B594B004AF7860C1
:102DF8007B681B697A68127913447B637B6B5B7B06
:102E080087F833307B6BDB899BB21846FFF746FCAB
:102E180003463B867B6B1B889BB21846FFF73EFC3C
:102E28000346FB857B6B5B889BB21846FFF736FC35
:102E38000346BB857B68DB681846FFF75EFCB86213
:102E48007B6B5B681846FFF73FFC78627B6B9B687F
:102E58001846FFF739FC38620023FB630023BB6385
:102E680059E0934ABB6B13441B78FB77FB7F914A6D
:102E780041F6F00101FB03F313441C331B68BA6AE3
:102E88009A422DD1FB7F8B4A41F6F00101FB03F3F7
:102E980013442C331B88FA8D9A4221D1FB7F854A33
:102EA80041F6F00101FB03F313442E331B88BA8D5E
:102EB8009A4215D1FB7F41F6F00202FB03F37D4AEB
:102EC8001344FB63FB6B3A8E5A8597F8333003F053
:102ED8000403002B26D0FB7F1846FFF7B5FC2FE232
:102EE800FB7F744A41F6F00101FB03F313442E33D0
:102EF8001B88BA8D9A420BD17B6A0133FA8DB98D42
:102F080004200190009300237868FFF7F9FC17E28A
:102F1800BB6B0133BB63684B1B781A46BB6B934290
:102F28009FDB00E000BFFB6B002B6AD197F83330C2
:102F380003F00203002B64D0FFF752FCB861BB69B1
:102F4800B3F1FF3F0BD17B6A0133FA8DB98D1420A1
:102F58000190009300237868FFF7D2FC51E0BB6929
:102F680041F6F00202FB03F3524A1344FB63BB69C8
:102F7800DAB2FB6B83F83520FB6BBA6ADA61FFF7CC
:102F880081FB0246FB6B5A60FB6B03F137007B68E1
:102F98009B680622194600F02DFFFB6BFA8D9A8577
:102FA800FB6BBA8DDA85FB6B7A6ADA607B6A5A1C2E
:102FB800FB6B5A62FB6B3A8E5A85FB6B4FF4A0523F
:102FC8001A853E4B9A68FB6B5A61FB6B5A69FB6B1F
:102FD8001A62FB6B012283F83D20FB6B5969FB6B7E
:102FE8005A6A0023029300230193012300931223BA
:102FF800F86BFFF76DFDFB6B5B695A1CFB6B5A6145
:103008009EE1FB6B002B00F08C81FB6B93F83D304D
:10301800013B042B00F2878101A252F823F000BF84
:103028003D300008C93000082B320008B3320008D0
:10303800FD32000897F8333003F01003002B25D039
:10304800FB6B5B693A6A9A4240F06F81FB6B5B6A83
:103058007A6A9A4240F06981FFF714FB0246FB6BDB
:103068005A60FB6B3A6A1A62FB6B002283F83620BF
:10307800FB6B00221A61FB6B002283F83420FB6B88
:1030880000225A86FB6B022283F83D2097F83330E2
:1030980003F00203002B00F04A817B6A5A1CFB6B89
:1030A8005B6A9A4240F04381F86BFFF7BBFC3EE154
:1030B80084130120241A00208E13012010E000E060
:1030C800FFF7E0FA0246FB6B5A60FB6B002283F8BD
:1030D8003620FB6B5B693A6A9A4200F22A81FB6BE5
:1030E8005B6A7A6A9A4240F0248197F8333003F099
:1030F8000103002B2AD0FB6B5B6A5A1CFB6B5A62DC
:10310800FB6B5969FB6B5A6A0023029300230193F6
:10311800002300931023F86BFFF7DAFCFB6B596967
:10312800FB6B5A6A00230293002301930123009347
:103138001123F86BFFF7CCFCFB6B5B695A1CFB6B2C
:103148005A61FB6B052283F83D20F2E097F8333093
:1031580003F01003002B00F0EC80FB6B1B6A3A6A4B
:103168009A4202D9FB6B3A6A1A62FB6B00225A86B2
:10317800FB6B00221A61FB6B002283F834207B6B07
:103188001B7B1B09DBB29B00FB827B681B887A6870
:1031980012799B1A9AB2FB8AD31ABB82BB8A002B7C
:1031A80000F0C780FB8A7A6B13443B61FB6B1B8E74
:1031B800C3F5A053FB81BA8AFB899A4201D8BB8A1E
:1031C80000E0FB89BB81FB6B1B8E3833FA6B134421
:1031D8000633BA893969184600F00CFEFB6B1A8E63
:1031E800BB8913449AB2FB6B1A86FB6B5A6ABB897C
:1031F8001A44FB6B5A62FB6B1B8EC3F5A0539AB241
:10320800FB6B1A85FB6B5969FB6B5A6A00230293A7
:1032180000230193002300931023F86BFFF758FC59
:1032280087E097F8333003F01003002B00F0838019
:10323800FB6B5B693A6A9A427DD1FFF723FA024633
:10324800FB6B5A60FB6B002283F83620FB6B002275
:103258005A86FB6B00221A61FB6B002283F834202C
:1032680097F8333003F00103002B19D0FB6B5B6A2E
:103278005A1CFB6B5A62FB6B5969FB6B5A6A002339
:10328800029300230193002300931023F86BFFF7A8
:103298001FFCFB6B93F835301846FFF7D5FA4FE063
:1032A800FB6B042283F83D2045E097F8333003F0A8
:1032B8000103002B41D0FB6B5B6A7A6A9A423CD1CE
:1032C800FB6B5B6A5A1CFB6B5A62FB6B5969FB6BA5
:1032D8005A6A0023029300230193002300931023CA
:1032E800F86BFFF7F5FBFB6B93F835301846FFF7E3
:1032F800ABFA25E097F8333003F01003002B1ED00B
:10330800FB6B5B693A6A9A4219D1FB6B5B6A7A6A12
:103318009A4214D1FB6B93F835301846FFF794FAAC
:103328000EE000BF0CE000BF0AE000BF08E000BFED
:1033380006E000BF04E000BF02E000BF00E000BFFD
:103348004037BD4680BD00BF80B586B004AF786009
:103358007B6893F83D30022B11D17B6859697B68F3
:103368005A6A002302930023019301230093012347
:103378007868FFF7ADFB7B68032283F83D2000BF28
:103388000837BD4680BD80B588B004AFF860B96025
:103398001346FB80FB6893F83D30022B02D04FF0B8
:1033A800FF3325E0FB681B8DFA889A4202D94FF05B
:1033B800FF331DE0FB685A69FB681B6A9A4215D106
:1033C800FB685969FB685A6AFB880293BB680193DA
:1033D800012300931823F868FFF77AFBFB685A6902
:1033E800FB881A44FB685A61002301E06FF001036F
:1033F80018461037BD4680BD80B400AF164B1A780A
:10340800164B9A71144B5A78144BDA71124B9A78FE
:10341800124B1A72104BDA78104B5A720E4B1A79FB
:103428000E4B9A720C4B5A790C4BDA720C4B1A7879
:103438000A4B9A760A4B5A78084BDA76084B9A78F0
:10344800064B1A77064BDA78044B5A7700BFBD460D
:103458005DF8047B704700BF58000020C4000020BE
:103468006000002080B500AFFFF7C6FF80BD80B4C4
:1034780000AF00BFFDE780B400AF00BFFDE780B438
:1034880000AF00BFFDE780B400AF00BFFDE780B428
:1034980000AF00BFFDE780B400AF00BFBD465DF8D8
:1034A800047B704780B400AF00BFBD465DF8047B65
:1034B800704780B400AF00BFBD465DF8047B70471D
:1034C80080B400AF00BFBD465DF8047B704780B490
:1034D80000AF01231846BD465DF8047B704780B5F0
:1034E80082B000AF7860396000F04EFC03461622C7
:1034F8001A604FF0FF3318460837BD4680BD80B5C7
:1035080082B000AF78604FF0FF317868FFF7E7FFCF
:1035180000BFFDE780B586B000AFF860B9607A609B
:1035280000237B610AE0AFF300800146BB685A1CA8
:10353800BA60CAB21A707B6901337B617A697B68A9
:103548009A42F0DB7B6818461837BD4680BD80B5C7
:1035580086B000AFF860B9607A6000237B6109E04B
:10356800BB685A1CBA601B781846AFF300807B69A9
:1035780001337B617A697B689A42F1DB7B68184684
:103588001837BD4680BD80B483B000AF78604FF077
:10359800FF3318460C37BD465DF8047B704780B48E
:1035A80083B000AF786039603B684FF400525A60CE
:1035B800002318460C37BD465DF8047B704780B47D
:1035C80083B000AF7860012318460C37BD465DF81C
:1035D800047B704780B485B000AFF860B9607A604A
:1035E800002318461437BD465DF8047B70470EB4B7
:1035F80080B482B000AF78604FF0FF3318460837C8
:10360800BD465DF8047B03B0704780B582B000AF5B
:10361800786000F0B9FB03460A221A604FF0FF33C6
:1036280018460837BD4680BD80B582B000AF7860C7
:1036380000F0AAFB034602221A604FF0FF33184637
:103648000837BD4680BD80B483B000AF78604FF0C6
:10365800FF3318460C37BD465DF8047B704780B4CD
:1036680083B000AF786039603B684FF400525A600D
:10367800002318460C37BD465DF8047B704780B5BB
:1036880082B000AF7860396000F07EFB03461F22ED
:103698001A604FF0FF3318460837BD4680BD80B525
:1036A80000AF00F071FB03460B221A604FF0FF33A6
:1036B800184680BD80B584B000AFF860B9607A6004
:1036C80000F062FB03460C221A604FF0FF331846E5
:1036D8001037BD4680BD000080B586B000AF786069
:1036E800144A154BD31A7B617B693B61134B1B68EA
:1036F800002B02D1114B124A1A60104B1A687B68D2
:1037080013443A699A4207D200F03EFB03460C2262
:103718001A604FF0FF3309E0084B1B68FB60074B4A
:103728001A687B681344054A1360FB681846183703
:10373800BD4680BD0000082000040000A41301203D
:10374800F814012080B400AF064BD3F88830054A3E
:1037580043F47003C2F8883000BFBD465DF8047BAF
:10376800704700BF00ED00E080B487B000AF344B75
:103778009B6803F00C033B613B69082B11D03B6944
:10378800082B44D83B69002B03D03B69042B04D099
:103798003DE02C4B2C4A1A603DE02A4B2B4A1A601C
:1037A80039E0274B5B689B0D03F00103FB60244B5A
:1037B8005B6803F03F03BB60FB68002B0CD0234A17
:1037C800BB68B2FBF3F31E4A52689209C2F30802BF
:1037D80002FB03F37B610BE01B4ABB68B2FBF3F30C
:1037E800174A52689209C2F3080202FB03F37B618D
:1037F800134B5B681B0C03F0030301335B007B6016
:103808007A697B68B2FBF3F30E4A136003E00D4B51
:103818000D4A1A6000BF0A4B9B681B0903F00F038F
:103828000B4AD35C3B61074B1A683B6922FA03F3E6
:10383800044A136000BF1C37BD465DF8047B70471F
:1038480000380240000100200024F40000127A0031
:10385800E4410008DFF834D0FFF774FF0C480D4945
:103868000D4A002302E0D458C4500433C4188C42D3
:10387800F9D30A4A0A4C002301E013600432A24239
:10388800FBD300F087FAFCF721FE70470000082000
:10389800000000206001002038420008600100207C
:1038A800F8140120FEE70268D207034605D44278DF
:1038B80002B1FFDE012058707047002070470023D6
:1038C80043707047012303607047000008B5064B3A
:1038D800044613B10021AFF30080044B1B6803B109
:1038E80098472046FFF70BFE00000000E014012077
:1038F800002310B50446C0E90033C0E904338360EF
:1039080081814366C2818361194608225C3000F0D8
:103918008FF90D4B63620D4BA3620D4BE3620D4BA8
:1039280023630D4B24629C4206D003F16802944243
:1039380002D0D0339C4205D104F15800BDE81040B4
:1039480000F04DBA10BD00BF8D3B0008B33B000826
:10395800EB3B0008113C0008A8130120024A034968
:10396800034800F0F1B800BF040100200D41000831
:103978001401002041680C4B994210B5044601D04F
:1039880000F0C0FBA168094B994202D0204600F024
:10399800B9FBE168064B994204D02046BDE81040C7
:1039A80000F0B0BB10BD00BFA81301201014012007
:1039B8007814012008B54B6EDA0705D48B899B056E
:1039C80002D4886D00F00FFA002008BD08B54B6ED0
:1039D800DA0705D48B899B0502D4886D00F009FAB3
:1039E800002008BD0C4B0D4A0D4810B504211A6083
:1039F8000022FFF77DFF0A4B01221C46092103F133
:103A08006800FFF775FF04F1D0000222BDE81040FE
:103A18001221FFF76DBF00BFE014012065390008CF
:103A2800A8130120014800F0DEB900BFEF140120FF
:103A3800014800F0DEB900BFEF140120F8B50746D1
:103A4800FFF7F0FF234B1B680BB9FFF7CBFF224EA4
:103A5800D6E90134013B0FD53568002D38D14FF434
:103A6800D671384600F040FA044628BB3060FFF7AC
:103A7800DFFF0C233B601BE0B4F90C50D5B9174BA2
:103A8800E36004F15800656600F0A9F9FFF7D0FF7C
:103A9800C4E90155C4E904552560A56108222946F1
:103AA80004F15C0000F0C4F8C4E90D55C4E91255EE
:103AB8002046F8BD6834CDE70423056043600C3028
:103AC8002946A0604FF4D07200F0B2F82546346061
:103AD8002E46BDE7E0140120040100200100FFFF8D
:103AE80010B50446FFF79EFF236A1BB1BDE81040DE
:103AF800FFF79EBF044B2362044B1B68002BF5D1D4
:103B0800FFF770FFF2E700BF7D390008E0140120DD
:103B180008B5FFF787FFBDE80840024A02490020C0
:103B280000F012B804010020BD39000808B5044AA5
:103B38000449002000F008F8BDE80840FFF778BF06
:103B480004010020D53900082DE9F84307468846C6
:103B580014460026D4E90195B9F1010905D5246870
:103B6800002CF7D13046BDE8F883AB89012B07D983
:103B7800B5F90E30013303D029463846C04706430D
:103B88006835E9E710B50C46B1F90E1000F0D8F821
:103B98000028ABBF636DA3891B1823F48053ACBF07
:103BA8006365A38110BD002070472DE9F0411F46D1
:103BB8008B89DB0505460C46164605D5B1F90E106E
:103BC8000223002200F0AAF8A389B4F90E1023F406
:103BD8008053A38132463B462846BDE8F04100F0B9
:103BE800C1B810B50C46B1F90E1000F097F8B4F949
:103BF8000C30421C0BBF23F4805343F48053A38141
:103C0800A38118BF606510BDB1F90E1000F018B897
:103C180010B501390244904201D1002005E0037833
:103C280011F8014FA34201D0181B10BD0130F2E773
:103C380002440346934200D1704703F8011BF9E799
:103C480038B5064D0023044608462B60FFF79BFC59
:103C5800431C02D12B6803B1236038BDE414012052
:103C68002D4B1B68834270B5044653D0C3691BB300
:103C7800DB6863B10025E369DB685959B1B90435DC
:103C8800802DF8D1E3692046D96800F0C1F8E369CE
:103C9800196811B1204600F0BBF8E3699D685DB171
:103CA800294620462D6800F0B3F8F8E70E6820464C
:103CB80000F0AEF83146E1E7616911B1204600F045
:103CC800A7F8E16911B1204600F0A2F8216B11B103
:103CD800204600F09DF8616B11B1204600F098F87D
:103CE800A16B11B1204600F093F8A16C11B12046E8
:103CF80000F08EF8616C11B1204600F089F8E16A95
:103D080011B1204600F084F8236A1BB12046BDE8B3
:103D18007040184770BD00BF1001002038B5074D2E
:103D280004460846114600222A601A46FFF752FC4C
:103D3800431C02D12B6803B1236038BDE414012071
:103D480038B5074D04460846114600222A601A462F
:103D5800FFF7E0FB431C02D12B6803B1236038BD99
:103D6800E414012038B5074D0446084611460022E0
:103D78002A601A46FFF7EBFB431C02D12B6803B1FC
:103D8800236038BDE4140120014B1868704700BF58
:103D98001001002070B50D4B0D4D5B1B9C100026CB
:103DA800A64209D100F0FCF90A4D0B4B5B1B9C1095
:103DB8000026A64205D170BD55F8043B9847013648
:103DC800EEE755F8043B98470136F2E72842000829
:103DD800284200082842000834420008704770470B
:103DE800704770477047704701207047012070473F
:103DF800704770470A44914200F1FF3300D1704781
:103E080010B511F8014B03F8014F9142F9D110BDDB
:103E180038B50546002941D051F8043C0C1F002B49
:103E2800B8BFE41800F0E0F81D4A136833B96360BE
:103E380014602846BDE8384000F0DCB8A34208D931
:103E4800206821188B4201BF19685B680918216036
:103E5800EDE71A465B680BB1A342FAD9116850180E
:103E6800A0420BD120680144501883421160E0D170
:103E780018685B68536008441060DAE702D90C23BD
:103E88002B60D6E7206821188B4204BF19685B684D
:103E9800636004BF091821605460CAE738BD00BFD9
:103EA800F414012070B50F4E0C463168054611B95F
:103EB80000F064F930602146284600F05FF9431CA1
:103EC80003D14FF0FF34204670BDC41C24F0030416
:103ED800A042F8D0211A284600F050F90130F2D15A
:103EE800EFE700BFF01401202DE9F843CD1C25F0C1
:103EF800030508350C2D38BF0C25002D064601DBBF
:103F0800A94204D90C2333600020BDE8F883DFF808
:103F1800D48000F069F8D8F800301C4644BB294624
:103F28003046FFF7BFFF431C044658D1D8F800407D
:103F38002746002F43D1002C4BD023683946304602
:103F480004EB030900F01AF9814542D121686D1A82
:103F580029463046FFF7A6FF01303AD023682B44A4
:103F68002360D8F800305A6862BBC8F800700FE0C8
:103F78002268521B20D40B2A17D96119A342256045
:103F880018BF5960636808BFC8F8001062514B60D9
:103F9800304600F02FF804F10B00231D20F0070035
:103FA800C21A1CBF1B1AA350AFE76268A3420CBF1A
:103FB800C8F800205A60EBE723466468AEE73C4641
:103FC8007F68B6E71A465B68A342FBD100235360BB
:103FD800DEE70C233360304600F00CF894E7056008
:103FE800D6E700BFF41401200148FFF7FCBE00BF6C
:103FF800EC1401200148FFF7FCBE00BFEC140120BF
:10400800B1F90C202DE9F041160705460C4651D4AC
:104018004B68002B02DC0B6C002B49DDE66A002E96
:1040280046D0002312F480522F682B6031D0626D85
:10403800A389590705D56368D21A636B0BB1236C42
:10404800D21A0023E66A216A2846B047421CB4F90E
:104058000C3006D129681D2946D8294ACA40D607F6
:1040680042D500226260D9042269226004D5421C2C
:1040780001D12B6803B96065616B2F60C1B104F190
:104088004403994202D02846FFF7C2FE0023636327
:104098000EE0216A01232846B0470246501CC7D1CA
:1040A8002B68002BC4D01D2B01D0162B1AD12F60E2
:1040B80000201EE00F69002FFAD093070E6808BF92
:1040C8004B690F6018BF0023A6EB07088B60B8F197
:1040D800000FEDDD216AA66A43463A462846B047F6
:1040E800002808DCB4F90C3043F04003A3814FF0FA
:1040F800FF30BDE8F0810744A8EB0008E7E700BF00
:104108000100402038B50B6905460C4613B9002557
:10411800284638BD18B1036A0BB9FFF7E1FCB4F9BA
:104128000C30002BF3D0626ED00704D4990502D46A
:10413800A06DFFF758FE28462146FFF761FF636E22
:10414800DA070546E4D4A3899B05E1D4A06DFFF7FF
:1041580050FEDDE7014620B9044A05490548FFF746
:10416800F3BC054B1868FFF7CDBF00BF0401002062
:104178000D410008140100201001002038B5064D3B
:104188000023044608462B60FFF7A6FA431C02D119
:104198002B6803B1236038BDE4140120000000003F
:1041A800F8B500BFF8BC08BC9E467047F8B500BF1C
:0841B800F8BC08BC9E467047EC
:1041C0003E410C4111412741364103410641154111
:1041D0000F410E41264113412941024119410A4133
:1041E0000B41000000000000000000000102030479
:1041F0000607080900000000010203043E410C41CB
:104200001141274136410341064115410F410E41FD
:10421000264113412941024119410A410B41000045
:08422000D8BFFF7F0100000080
:0C422800F10200089D2200086D3400081F
:04423400C9020008B3
:10423800000000000400D800000000000014001076
:10424800070101014C4D414F204C4D414F204C4D31
:10425800414F204C4D414F204C4D414F204C4D413A
:104268004F204C4D414F0000C0A8000AD843AE7DF6
:104278007B4000003C00002038000020EAFC881346
:10428800940100201800000002123456789A0000A9
:10429800C0A8007B00000000000000000000000033
:1042A80008004500002E000000004001000000004A
:1042B80000000000000003030000000000000000F0
:1042C80000000000000000000000000000000000E6
:1042D8000000000008004500000000000000401138
:1042E800000000000000000000001388000000002B
:1042F80000000000000000000000000000000000B6
:104308000800450000000000000040060000000012
:1043180000000000000013880000000000000000FA
:10432800000050020400000000000000A01301205B
:104338000024F4000000000003000000A81301207E
:104348001401002000000000A8130120101401200F
:1043580078140120000000000000000000000000A8
:104368000000000000000000000000000000000045
:104378000000000000000000000000000000000035
:104388000000000000000000000000000000000025
:040000050800385D5A
:00000001FF
